:100000000C942A000C943F000C943F000C943F0089
:100010000C943F000C943F000C943F000C943F0064
:100020000C943F000C943F000C943F000C943F0054
:100030000C943F000C943F000C943F000C943F0044
:100040000C943F000C943F000C943F000C943F0034
:100050000C943F0011241FBECFE5D8E0DEBFCDBF1A
:1000600011E0A0E6B0E0EAE2F8E302C005900D92EC
:10007000A837B107D9F70E944E1B0C94131C0C949F
:100080000000EF92FF920F931F937B018C0120E001
:1000900030E040E05FE40E94710588238CF0C801E5
:1000A000B70120E030E040E05FE40E943D030E94A1
:1000B0002F069B01AC01205030404040504806C004
:1000C000C801B7010E942F069B01AC01B901CA010A
:1000D0001F910F91FF90EF900895A0E0B0E0E3E74B
:1000E000F0E00C94DC1B7B018C0120E030E040E868
:1000F0005FE30E94A10588234CF4AA24BB24CC24EE
:10010000DD24EE24FF2400E010E086C0C801B70122
:1001100020E030E040E85FE40E94A105882354F429
:10012000C801B7010E9441005B016C01EE24FF246D
:10013000870172C0C801B70120E030E040E85FE508
:100140000E94A10587FD0FC0AA24AA94BB24BA94DB
:10015000CC24CA94DD24DA94EE24EA94FF24FA94A1
:100160000FEF1FEF59C0C801B70120E030E040E8B1
:100170005FE20E949B037B018C0122243324210136
:1001800090E1A92EB12CC12CD12CC0E0D0E061E0CF
:1001900070E080E090E00A2C04C0660F771F881F93
:1001A000991F0A94D2F70E9483063B014C01C801B3
:1001B000B701A40193010E947105882364F02A28E5
:1001C0003B284C285D28C801B701A40193010E9477
:1001D00095047B018C01D694C794B794A79421967B
:1001E000C530D105A1F6C801B70120E030E040E8F4
:1001F0005FE40E949B030E9441005B016C019B0134
:10020000A60160E070E080E090E0022D0E947B0794
:1002100059016A017B018C019501A601B701C80152
:10022000CDB7DEB7E2E10C94F81BA2E0B0E0EBE161
:10023000F1E00C94DC1B122FB32EA42E952E862EEB
:10024000372E282E9A83C22ED32EE42EF52EA70108
:10025000960160E070E080E090E02117A1F43B158A
:1002600091F44A1581F4591571F4681561F4731508
:1002700051F4821541F4AA819A1729F4C701B601F5
:100280000E948306AAC0212F3B2D4A2D592D682D8F
:10029000732D822D9A8100E20E94FC06C901DA01C9
:1002A0008030E0E09E07E1E0AE07E0E0BE0780F4CA
:1002B0008F3F9105A105B10531F028F028E030E02D
:1002C00040E050E016C020E030E040E050E011C0D7
:1002D0008030F0E09F07F0E0AF07F1E0BF0728F0C3
:1002E00028E130E040E050E004C020E130E040E0B0
:1002F00050E0022E04C0B695A795979587950A946D
:10030000D2F7FC01E859FF4F808129013A01480EDC
:10031000511C611C711C4982212F3B2D4A2D592DE6
:10032000682D732D822D9A81042D0E94FC06C9012F
:10033000DA014C015D0180E290E08419950904C066
:10034000CC0CDD1CEE1CFF1C8A95D2F7C114D10425
:10035000E104F10441F081E090E0A0E0B0E0882AFF
:10036000992AAA2ABB2A90E2491651046104710411
:1003700059F40F2EF0E0EF2EF0E0FF2EF0E80F2FF3
:10038000FFE41F2FF02D21C0AFE14A165104610494
:10039000710459F40F2EF0E0EF2EF0E0FF2EF0E0A4
:1003A0000F2FFFE41F2FF02D10C061E070E080E000
:1003B00090E0098004C0660F771F881F991F0A9478
:1003C000D2F70E94D1057B018C01C501B4010E94C6
:1003D0008306A80197010E949B032296E2E10C94F8
:1003E000F81BA0E0B0E0E7EFF1E00C94DC1BDC01CF
:1003F0002B01FA019C91923008F439C1EB018881FC
:10040000823008F433C1943069F4843009F02FC18C
:1004100011969C9111978981981709F428C1A0E63B
:10042000B0E025C1843009F421C18230A9F49230B2
:1004300009F01DC19A01AD0188E0EA010990AE0101
:10044000E90109929E018150C1F7E201898111966B
:100450009C918923818308C1923009F407C11296C7
:100460002D903C901397EB018A819B811496AD905F
:10047000BD90CD90DC901797EC80FD800E811F81A0
:100480009101281B390BB90137FF04C06627772774
:10049000621B730B603271050CF061C012161306FB
:1004A0006CF537014801062E04C096948794779422
:1004B00067940A94D2F721E030E040E050E004C0B5
:1004C000220F331F441F551F6A95D2F72150304029
:1004D000404050402E213F2140235123211531051A
:1004E0004105510521F021E030E040E050E0790184
:1004F0008A01E628F728082919293CC0232BD1F1C5
:10050000260E371E35014601062E04C096948794A8
:10051000779467940A94D2F721E030E040E050E00D
:1005200004C0220F331F441F551F6A95D2F7215074
:100530003040404050402A213B214C215D21211573
:1005400031054105510521F021E030E040E050E067
:1005500059016A01A628B728C828D9280BC08215D6
:1005600093052CF01C01AA24BB24650103C0EE24D2
:10057000FF24870111969C91D20111968C919817B6
:1005800009F445C0992339F0A80197012A193B09BC
:100590004C095D0906C0A60195012E193F09400BC3
:1005A000510B57FD08C01182338222822483358388
:1005B000468357831DC081E081833382228288274E
:1005C0009927DC01821B930BA40BB50B84839583C5
:1005D000A683B7830DC0220F331F441F551F2483EA
:1005E00035834683578382819381019793838283E6
:1005F0002481358146815781DA01C9010197A1091A
:10060000B1098F5F9F4FAF4FBF4328F30BC091835A
:1006100033822282EA0CFB1C0C1D1D1DE482F58234
:100620000683178383E08083248135814681578147
:1006300057FF1AC0C901AA2797FDA095BA2F81704C
:100640009070A070B0705695479537952795822B7E
:10065000932BA42BB52B84839583A683B7838281A8
:100660009381019693838283DF0101C0D201CD0182
:10067000CDB7DEB7E2E10C94F81BA0E2B0E0E3E412
:10068000F3E00C94E81B69837A838B839C832D832E
:100690003E834F835887E9E0EE2EF12CEC0EFD1ED1
:1006A000CE010196B7010E941E098E010F5E1F4FF9
:1006B000CE010596B8010E941E098A8991E089271A
:1006C0008A8BC701B801AE01475E5F4F0E94F101FE
:1006D0000E944908A096E6E00C94041CA0E2B0E059
:1006E000E4E7F3E00C94E81B69837A838B839C83B3
:1006F0002D833E834F835887F9E0EF2EF12CEC0ECB
:10070000FD1ECE010196B7010E941E098E010F5EEB
:100710001F4FCE010596B8010E941E09C701B801FE
:10072000AE01475E5F4F0E94F1010E944908A0960A
:10073000E6E00C94041CA0E2B0E0E1EAF3E00C94E3
:10074000DC1B69837A838B839C832D833E834F8359
:100750005887CE010196BE01675F7F4F0E941E0938
:10076000CE010596BE016F5E7F4F0E941E099985DE
:10077000923088F089898230C8F0943019F4823040
:1007800051F404C0843029F4923081F480E690E082
:10079000C6C0923049F420E09A858A89981321E0F6
:1007A0002A87CE010996BBC0823049F420E09A85A1
:1007B0008A89981321E02A8BCE014196B0C02D84FE
:1007C0003E844F8458886D887E888F88988CEE246C
:1007D000FF248701AA24BB24650140E050E060E0CB
:1007E00070E0E0E0F0E0C10181709070892BE9F0E9
:1007F000E60CF71C081D191D9A01AB012A0D3B1DC3
:100800004C1D5D1D80E090E0A0E0B0E0E614F70430
:100810000805190520F481E090E0A0E0B0E0BA01FD
:10082000A901480F591F6A1F7B1FAA0CBB1CCC1CB7
:10083000DD1C97FE08C081E090E0A0E0B0E0A82AAF
:10084000B92ACA2ADB2A3196E032F10549F0660C52
:10085000771C881C991C5694479437942794C3CFCF
:10086000FA85EA892B893C898B859C85280F391F5D
:100870002E5F3F4F17C0CA0181709070892B61F0C5
:1008800016950795F794E79480E090E0A0E0B0E833
:10089000E82AF92A0A2B1B2B7695679557954795D9
:1008A0002F5F3F4F77FDE7CF0CC0440F551F661FEA
:1008B000771F17FD4160EE0CFF1C001F111F215018
:1008C0003040403090E0590790E0690790E47907A4
:1008D00060F32B8F3C8FDB01CA018F779070A07083
:1008E000B07080349105A105B10561F447FD0AC0DF
:1008F000E114F1040105110529F0405C5F4F6F4FD1
:100900007F4F40781A8EFE1711F081E08A8F4D8F4D
:100910005E8F6F8F78A383E0898FCE0149960E9406
:100920004908A096E2E10C94F81BA8E1B0E0EBE9DD
:10093000F4E00C94E41B69837A838B839C832D837E
:100940003E834F835887B9E0EB2EF12CEC0EFD1E51
:10095000CE010196B7010E941E098E010F5E1F4F46
:10096000CE010596B8010E941E092985223008F49F
:100970007EC03989323010F4B8017CC08A859A89EA
:1009800089278A87243011F0223031F4231709F0A7
:100990006EC060E670E06EC0343039F41D861E868D
:1009A0001F86188A1C861B8604C0323021F484E01E
:1009B0008987B7015FC02B853C858B899C89281B63
:1009C000390B3C872B87ED84FE840F851889AD8811
:1009D000BE88CF88D88CEA14FB040C051D0540F4B2
:1009E000EE0CFF1C001F111F215030403C872B874D
:1009F00020E030E040E050E080E090E0A0E0B0E4B3
:100A000060E070E0EA14FB040C051D0540F0282BA3
:100A1000392B4A2B5B2BEA18FB080C091D09B695EC
:100A2000A79597958795EE0CFF1C001F111F6F5F10
:100A30007F4F6F31710531F7DA01C9018F779070FF
:100A4000A070B07080349105A105B10561F427FD57
:100A50000AC0E114F1040105110529F0205C3F4FA3
:100A60004F4F5F4F20782D873E874F87588BBE01B1
:100A7000675F7F4FCB010E9449086896EAE00C94BB
:100A8000001CA8E1B0E0E7E4F5E00C94E81B698302
:100A90007A838B839C832D833E834F83588789E0A1
:100AA000E82EF12CEC0EFD1ECE010196B7010E943E
:100AB0001E098E010F5E1F4FCE010596B8010E94E0
:100AC0001E098985823040F08989823028F0C7016B
:100AD000B8010E94960901C08FEF6896E6E00C9479
:100AE000041CA8E1B0E0E7E7F5E00C94E81B69839B
:100AF0007A838B839C832D833E834F83588789E041
:100B0000E82EF12CEC0EFD1ECE010196B7010E94DD
:100B10001E098E010F5E1F4FCE010596B8010E947F
:100B20001E098985823040F08989823028F0C7010A
:100B3000B8010E94960901C08FEF6896E6E00C9418
:100B4000041CA8E1B0E0E7EAF5E00C94E81B698337
:100B50007A838B839C832D833E834F83588789E0E0
:100B6000E82EF12CEC0EFD1ECE010196B7010E947D
:100B70001E098E010F5E1F4FCE010596B8010E941F
:100B80001E098985823040F08989823028F0C701AA
:100B9000B8010E94960901C081E06896E6E00C94D5
:100BA000041CA8E0B0E0E7EDF5E00C94E51B9B0128
:100BB000AC0183E08983DA01C9018827B7FD8395F9
:100BC0009927AA27BB27B82E2115310541055105C4
:100BD00019F482E089833AC08823A9F0203080E0AC
:100BE000380780E0480780E8580729F460E070E0A3
:100BF00080E09FEC30C0EE24FF248701E21AF30A64
:100C0000040B150B02C079018A018EE1C82ED12C8C
:100C1000DC82CB82ED82FE820F831887C801B70188
:100C20000E94FA0701971816190684F4082E04C0CA
:100C3000EE0CFF1C001F111F0A94D2F7ED82FE82FA
:100C40000F831887C81AD90ADC82CB82BA82CE01F8
:100C500001960E9449082896E9E00C94011CACE03A
:100C6000B0E0E5E3F6E00C94EC1B69837A838B83B8
:100C70009C83CE010196BE016B5F7F4F0E941E09CF
:100C80008D81823061F1823050F1843021F48E8187
:100C9000882351F12EC02F81388537FD20C06E8109
:100CA0002F3131051CF06623F9F023C08EE190E06E
:100CB000821B930B29853A854B855C8504C056952C
:100CC0004795379527958A95D2F76623B1F05095C9
:100CD0004095309521953F4F4F4F5F4F0EC020E01C
:100CE00030E040E050E009C02FEF3FEF4FEF5FE70B
:100CF00004C020E030E040E050E8B901CA012C9681
:100D0000E2E00C94081CA8E0B0E0E9E8F6E00C94FE
:100D1000E41B7B018C01611571058105910519F4B6
:100D200082E0898360C083E089838EE1C82ED12C64
:100D3000DC82CB82ED82FE820F831887C801B70167
:100D40000E94FA07FC013197F7FF3BC022273327A7
:100D50002E1B3F0B57016801022E04C0D694C79486
:100D6000B794A7940A94D2F740E050E060E070E0B6
:100D700081E090E0A0E0B0E004C0880F991FAA1FB6
:100D8000BB1F2A95D2F70197A109B1098E219F2196
:100D9000A023B1230097A105B10521F041E050E067
:100DA00060E070E04A295B296C297D294D835E83D0
:100DB0006F8378878EE190E08E1B9F0B9C838B83E3
:100DC00012C0309781F00E2E04C0EE0CFF1C001FE5
:100DD000111F0A94D2F7ED82FE820F831887CE1A74
:100DE000DF0ADC82CB821A82CE0101960E9449087A
:100DF0002896EAE00C94001CEF92FF920F93DF9389
:100E0000CF93CDB7DEB760970FB6F894DEBF0FBEB5
:100E1000CDBFA82F002309F461C07E010894E11C16
:100E2000F11C88E0F70111928A95E9F729833A834A
:100E30004B835C836D837E83AF83988780E2801BC6
:100E4000E82FFF27E7FDF0954D815E816F81788562
:100E5000181684F01D861E861F86188A88279927F3
:100E60008E1B9F0B04C076956795579547958A957D
:100E7000D2F728C0202F332727FD3095DB01CA0188
:100E8000022E04C0B695A795979587950A94D2F738
:100E90008D879E87AF87B88B04C0440F551F661F90
:100EA000771FEA95D2F789819A81AB81BC8104C012
:100EB000B695A795979587952A95D2F7482B592BE4
:100EC0006A2B7B2B49875A876B877C8729853A85D4
:100ED0004B855C856D857E85AF8598898A2F609668
:100EE0000FB6F894DEBF0FBECDBFCF91DF910F914B
:100EF000FF90EF900895EF92FF920F93DF93CF93BF
:100F0000CDB7DEB760970FB6F894DEBF0FBECDBF8A
:100F1000A82F002309F461C07E010894E11CF11C94
:100F200088E0F70111928A95E9F729833A834B8388
:100F30005C836D837E83AF83988780E2801BE82F7C
:100F4000FF27E7FDF09549815A816B817C81181656
:100F500084F019861A861B861C86882799278E1B83
:100F60009F0B04C0440F551F661F771F8A95D2F749
:100F700028C0202F332727FD3095DB01CA01022E20
:100F800004C0880F991FAA1FBB1F0A94D2F7898734
:100F90009A87AB87BC8704C0769567955795479528
:100FA000EA95D2F78D819E81AF81B88504C0880F04
:100FB000991FAA1FBB1F2A95D2F7482B592B6A2BC2
:100FC0007B2B4D875E876F87788B29853A854B858C
:100FD0005C856D857E85AF8598898A2F60960FB672
:100FE000F894DEBF0FBECDBFCF91DF910F91FF9080
:100FF000EF900895EF92FF920F931F937B018C0166
:1010000080E0E81680E0F80681E0080780E0180735
:1010100088F48FEFE816F1040105110531F028F08E
:1010200088E090E0A0E0B0E017C080E090E0A0E0B1
:10103000B0E012C080E0E81680E0F80680E0080723
:1010400081E0180728F088E190E0A0E0B0E004C05B
:1010500080E190E0A0E0B0E020E230E040E050E04D
:10106000281B390B4A0B5B0B04C016950795F794A8
:10107000E7948A95D2F7F701E859FF4F8081281B42
:10108000310941095109C9011F910F91FF90EF905A
:101090000895DF92EF92FF920F931F93FC01E4807B
:1010A000F58006811781D1808081823048F480E00C
:1010B00090E0A0E1B0E0E82AF92A0A2B1B2BA5C09A
:1010C000843009F49FC0823021F4EE24FF2487018C
:1010D00005C0E114F1040105110519F4E0E0F0E0A8
:1010E00096C0628173819FEF623879070CF05BC014
:1010F00022E83FEF261B370B2A3131052CF020E088
:1011000030E040E050E02AC0B801A701022E04C040
:1011100076956795579547950A94D2F781E090E0C8
:10112000A0E0B0E004C0880F991FAA1FBB1F2A953A
:10113000D2F70197A109B1098E219F21A023B123E4
:101140000097A105B10521F081E090E0A0E0B0E0BA
:101150009A01AB01282B392B4A2B5B2BDA01C901F1
:101160008F779070A070B07080349105A105B105A3
:1011700039F427FF09C0205C3F4F4F4F5F4F04C039
:10118000215C3F4F4F4F5F4FE0E0F0E02030A0E0A8
:101190003A07A0E04A07A0E45A0710F0E1E0F0E0C7
:1011A00079018A0127C06038710564F5FB01E158B7
:1011B000FF4FD801C7018F779070A070B070803456
:1011C0009105A105B10539F4E7FE0DC080E490E07A
:1011D000A0E0B0E004C08FE390E0A0E0B0E0E80E53
:1011E000F91E0A1F1B1F17FF05C016950795F794D8
:1011F000E794319687E016950795F794E7948A95DA
:10120000D1F705C0EE24FF248701EFEFF0E06E2F49
:10121000679566276795902F9F77D794DD24D7949D
:101220008E2F8695492F462B582F5D29B701CA016D
:101230001F910F91FF90EF90DF900895FC01DB016B
:10124000408151812281622F6F7770E0221F222717
:10125000221F9381892F880F822B282F30E0991F1E
:101260009927991F11969C93119721153105A9F57E
:10127000411551056105710511F482E037C082E81E
:101280009FEF13969C938E9312979A01AB0167E0A0
:10129000220F331F441F551F6A95D1F783E08C93AB
:1012A0000DC0220F331F441F551F12968D919C9124
:1012B0001397019713969C938E931297203080E09A
:1012C000380780E0480780E4580758F314962D93B8
:1012D0003D934D935C93179708952F3F310579F413
:1012E000411551056105710519F484E08C93089549
:1012F00064FF03C081E08C9312C01C9210C02F5772
:10130000304013963C932E93129783E08C9387E0A2
:10131000440F551F661F771F8A95D1F77064149686
:101320004D935D936D937C93179708951F93DC0104
:10133000FB019C91923008F447C08081823008F410
:1013400043C0943051F411961C91843099F58181F9
:10135000682F70E0611B71093FC0843021F092302A
:1013600031F48230B9F18181882389F12DC0119641
:101370001C9111978230F1F081811817D9F41296DF
:101380002D913C911397828193818217930794F05A
:1013900028173907BCF014968D919D910D90BC9142
:1013A000A02D2481358146815781281739074A07A6
:1013B0005B0718F4112341F00AC082179307A407B2
:1013C000B50740F4112319F061E070E005C06FEF3C
:1013D0007FEF02C060E070E0CB011F910895DF93C2
:1013E000CF9300D000D000D0CDB7DEB78A836B8317
:1013F0004C8319828A81843008F0D4C08B81883074
:1014000008F0D0C08C81882321F08C81813009F0D4
:10141000C9C08A81282F30E03E832D836D817E8173
:101420006130710509F441C08D819E818230910542
:1014300034F42D813E812115310571F0B0C06D81EC
:101440007E816230710509F459C08D819E8183309F
:10145000910509F47CC0A3C0AAE3B0E0EAE3F0E0A0
:101460008081482F8B81282F30E081E090E002C0FE
:10147000880F991F2A95E2F7809584238C93AAE31D
:10148000B0E0EAE3F0E08081482F8C81282F30E043
:101490008B81882F90E0B90102C0660F771F8A9573
:1014A000E2F7CB01842B8C937AC0A7E3B0E0E7E3AB
:1014B000F0E08081482F8B81282F30E081E090E0A0
:1014C00002C0880F991F2A95E2F7809584238C9398
:1014D000A7E3B0E0E7E3F0E08081482F8C81282F7C
:1014E00030E08B81882F90E0B90102C0660F771F32
:1014F0008A95E2F7CB01842B8C9351C0A4E3B0E032
:10150000E4E3F0E08081482F8B81282F30E081E0F8
:1015100090E002C0880F991F2A95E2F780958423F6
:101520008C93A4E3B0E0E4E3F0E08081482F8C8169
:10153000282F30E08B81882F90E0B90102C0660F20
:10154000771F8A95E2F7CB01842B8C9328C0A1E307
:10155000B0E0E1E3F0E08081482F8B81282F30E07C
:1015600081E090E002C0880F991F2A95E2F78095EC
:1015700084238C93A1E3B0E0E1E3F0E08081482F85
:101580008C81282F30E08B81882F90E0B90102C038
:10159000660F771F8A95E2F7CB01842B8C9381E04D
:1015A000898302C082E08983898126960FB6F894E8
:1015B000DEBF0FBECDBFCF91DF910895DF93CF93F4
:1015C00000D000D000D0CDB7DEB78A836B834C83C8
:1015D00019828A81843008F0D4C08B81883008F069
:1015E000D0C08C81882321F08C81813009F0C9C062
:1015F0008A81282F30E03E832D836D817E8161308A
:10160000710509F441C08D819E818230910534F4C9
:101610002D813E812115310571F0B0C06D817E8133
:101620006230710509F459C08D819E818330910526
:1016300009F47CC0A3C0ABE3B0E0EBE3F0E0808151
:10164000482F8B81282F30E081E090E002C0880F86
:10165000991F2A95E2F7809584238C93ABE3B0E041
:10166000EBE3F0E08081482F8C81282F30E08B81E4
:10167000882F90E0B90102C0660F771F8A95E2F7C4
:10168000CB01842B8C937AC0A8E3B0E0E8E3F0E0D0
:101690008081482F8B81282F30E081E090E002C0CC
:1016A000880F991F2A95E2F7809584238C93A8E3ED
:1016B000B0E0E8E3F0E08081482F8C81282F30E013
:1016C0008B81882F90E0B90102C0660F771F8A9541
:1016D000E2F7CB01842B8C9351C0A5E3B0E0E5E3A6
:1016E000F0E08081482F8B81282F30E081E090E06E
:1016F00002C0880F991F2A95E2F7809584238C9366
:10170000A5E3B0E0E5E3F0E08081482F8C81282F4D
:1017100030E08B81882F90E0B90102C0660F771FFF
:101720008A95E2F7CB01842B8C9328C0A2E3B0E02A
:10173000E2E3F0E08081482F8B81282F30E081E0C8
:1017400090E002C0880F991F2A95E2F780958423C4
:101750008C93A2E3B0E0E2E3F0E08081482F8C813B
:10176000282F30E08B81882F90E0B90102C0660FEE
:10177000771F8A95E2F7CB01842B8C9381E08983D4
:1017800002C082E08983898126960FB6F894DEBF75
:101790000FBECDBFCF91DF910895DF93CF9300D0DF
:1017A00000D00F92CDB7DEB78A836B8319828A810E
:1017B0008430A8F58A81282F30E03D832C838C81EA
:1017C0009D8181309105D1F02C813D812230310500
:1017D0002CF48C819D81009761F01EC02C813D818D
:1017E0002230310581F08C819D818330910581F01B
:1017F00013C0EAE3F0E08B8180830EC0E7E3F0E002
:101800008B81808309C0E4E3F0E08B81808304C096
:10181000E1E3F0E08B81808381E0898302C082E094
:10182000898389810F900F900F900F900F90CF9127
:10183000DF910895DF93CF9300D000D00F92CDB702
:10184000DEB78A836B8319828A818430A8F58A8106
:10185000282F30E03D832C838C819D818130910540
:10186000D1F02C813D81223031052CF48C819D8179
:10187000009761F01EC02C813D812230310581F03E
:101880008C819D818330910581F013C0EBE3F0E002
:101890008B8180830EC0E8E3F0E08B81808309C0F8
:1018A000E5E3F0E08B81808304C0E2E3F0E08B812C
:1018B000808381E0898302C082E0898389810F90DF
:1018C0000F900F900F900F90CF91DF910895DF93BD
:1018D000CF9300D000D00F92CDB7DEB78A836B8351
:1018E00019828A81843008F075C08B81883008F0B5
:1018F00071C08A81282F30E03D832C838C819D81AB
:101900008130910549F12C813D81223031052CF443
:101910008C819D81009761F05AC02C813D812230DD
:10192000310571F18C819D8183309105E9F14FC0C2
:10193000ABE3B0E0EBE3F0E08081482F8B81282F10
:1019400030E081E090E0022E02C0880F991F0A94D7
:10195000E2F784278C933BC0A8E3B0E0E8E3F0E033
:101960008081482F8B81282F30E081E090E0022E8B
:1019700002C0880F991F0A94E2F784278C9327C02E
:10198000A5E3B0E0E5E3F0E08081482F8B81282FCC
:1019900030E081E090E0022E02C0880F991F0A9487
:1019A000E2F784278C9313C0A2E3B0E0E2E3F0E017
:1019B0008081482F8B81282F30E081E090E0022E3B
:1019C00002C0880F991F0A94E2F784278C9381E064
:1019D000898302C082E0898389810F900F900F90E4
:1019E0000F900F90CF91DF910895DF93CF9300D0A8
:1019F00000D00F92CDB7DEB78A836B838A818430A3
:101A000008F06CC08B81883008F068C08A81282F6C
:101A100030E03D832C834C815D814130510541F1A3
:101A20008C819D818230910534F42C813D8121157A
:101A3000310561F055C04C815D814230510551F155
:101A40008C819D8183309105B9F14AC0E9E3F0E0D2
:101A50008081282F30E08B81882F90E0A90102C07F
:101A6000559547958A95E2F7CA018170898338C0F8
:101A7000E6E3F0E08081282F30E08B81882F90E032
:101A8000A90102C0559547958A95E2F7CA01817070
:101A9000898326C0E3E3F0E08081282F30E08B814A
:101AA000882F90E0A90102C0559547958A95E2F7E5
:101AB000CA018170898314C0E0E3F0E08081282F9F
:101AC00030E08B81882F90E0A90102C055954795A1
:101AD0008A95E2F7CA018170898302C082E0898316
:101AE00089810F900F900F900F900F90CF91DF9101
:101AF0000895DF93CF9300D000D0CDB7DEB78A83AF
:101B00008A81843098F58A81282F30E03C832B83AA
:101B10008B819C8181309105D1F02B813C812230D9
:101B200031052CF48B819C81009761F021C02B81C1
:101B30003C812230310581F08B819C81833091057D
:101B400081F016C0E9E3F0E08081898311C0E6E30B
:101B5000F0E0808189830CC0E3E3F0E08081898339
:101B600007C0E0E3F0E08081898302C082E08983DE
:101B700089810F900F900F900F90CF91DF91089572
:101B8000DF93CF9300D0CDB7DEB79A838983EEE39E
:101B9000F0E089819A8191838083ACE3B0E0ECE34B
:101BA000F0E0808181608C93EDE3F0E080810F9024
:101BB0000F90CF91DF910895DF93CF93CDB7DEB72C
:101BC00028970FB6F894DEBF0FBECDBF9C838B83E2
:101BD0007E836D8358874F83ECE3F0E08081882F0C
:101BE00090E0827090709595879581309105A1F372
:101BF0001A82198221C0EEE3F0E02B813C818981B9
:101C00009A81820F931F91838083ACE3B0E0ECE371
:101C1000F0E0808181608C932D813E8189819A8161
:101C2000D901A80FB91FEDE3F0E080818C93898181
:101C30009A8101969A83898329813A818F81988537
:101C400028173907C0F228960FB6F894DEBF0FBEEA
:101C5000CDBFCF91DF910895DF93CF9300D00F9246
:101C6000CDB7DEB79A8389836B83ECE3F0E08081A4
:101C7000882F90E0827090709595879581309105BE
:101C8000A1F3EEE3F0E089819A8191838083ACE354
:101C9000B0E0ECE3F0E0808181608C93EDE3F0E074
:101CA00090818B81981791F0EDE3F0E08B81808338
:101CB000ACE3B0E0ECE3F0E0808184608C93ACE3D3
:101CC000B0E0ECE3F0E0808182608C930F900F90A5
:101CD0000F90CF91DF910895DF93CF93CDB7DEB70B
:101CE00028970FB6F894DEBF0FBECDBF9C838B83C1
:101CF0007E836D8358874F831A82198252C082E295
:101D000095E20E94C00D61E070E080E090E00E94EA
:101D10007217ECE3F0E08081882F90E08270907081
:101D20009595879581309105A1F3EEE3F0E02B8145
:101D30003C8189819A81820F931F91838083ACE3D8
:101D4000B0E0ECE3F0E0808181608C93EDE3F0E0C3
:101D500040812D813E8189819A81F901E80FF91F27
:101D600080814817C9F0ADE3B0E02D813E818981C3
:101D70009A81F901E80FF91F80818C93ACE3B0E000
:101D8000ECE3F0E0808184608C93ACE3B0E0ECE3C2
:101D9000F0E0808182608C9389819A8101969A8398
:101DA000898329813A818F8198852817390708F41A
:101DB000A6CF65E570E080E090E00E94721728965B
:101DC0000FB6F894DEBF0FBECDBFCF91DF9108955F
:101DD000DF93CF9300D00F92CDB7DEB79A8389837C
:101DE0006B83ECE3F0E080818695882F90E0817032
:101DF00090708823B1F7EEE3F0E089819A819183B6
:101E00008083EDE3F0E08B818083ACE3B0E0ECE332
:101E1000F0E0808184608C93ACE3B0E0ECE3F0E030
:101E2000808182608C930F900F900F90CF91DF9103
:101E30000895DF93CF9300D0CDB7DEB79A8389831F
:101E4000EEE3F0E089819A8191838083ACE3B0E096
:101E5000ECE3F0E0808181608C93ACE3B0E0ECE3F4
:101E6000F0E080818D7F8C93EDE3F0E080810F9036
:101E70000F90CF91DF910895DF93CF93CDB7DEB769
:101E800028970FB6F894DEBF0FBECDBF9C838B831F
:101E90007E836D8358874F831A82198245C0ECE395
:101EA000F0E08081882F90E0827090700097B9F701
:101EB000EEE3F0E02B813C8189819A81820F931FB0
:101EC00091838083ACE3B0E0ECE3F0E0808181605B
:101ED0008C93EDE3F0E040812D813E8189819A81F0
:101EE000F901E80FF91F80814817C9F0ADE3B0E0B0
:101EF0002D813E8189819A81F901E80FF91F808146
:101F00008C93ACE3B0E0ECE3F0E0808184608C93F0
:101F1000ACE3B0E0ECE3F0E0808182608C938981F7
:101F20009A8101969A83898329813A818F81988544
:101F30002817390708F4B3CF28960FB6F894DEBFF8
:101F40000FBECDBFCF91DF910895DF93CF93CDB773
:101F5000DEB728970FB6F894DEBF0FBECDBF9C83C7
:101F60008B837E836D8358874F831A82198221C0A9
:101F7000EEE3F0E02B813C8189819A81820F931FEF
:101F800091838083ACE3B0E0ECE3F0E0808181609A
:101F90008C932D813E8189819A81D901A80FB91F27
:101FA000EDE3F0E080818C9389819A8101969A8398
:101FB000898329813A818F81988528173907C0F252
:101FC00028960FB6F894DEBF0FBECDBFCF91DF913C
:101FD0000895DF93CF93CDB7DEB762970FB6F8942D
:101FE000DEBF0FBECDBF998B888B6A8B1F86888919
:101FF0009989892F992780658F870E94CC118F85B9
:10200000882F90E060E070E00E9439128889882F64
:1020100090E00E9486128A89882F90E00E948612A2
:102020000E94201280E090E0A0EAB0E48B879C87B9
:10203000AD87BE876B857C858D859E8520E030E0F1
:102040004AE755E40E949B03DC01CB018F8398870C
:10205000A987BA876F81788589859A8520E030E0E5
:1020600040E85FE30E94A10588232CF481E090E022
:102070009E838D833FC06F81788589859A8520E016
:102080003FEF4FE757E40E94410518164CF56B856A
:102090007C858D859E8520E030E040E251E40E9401
:1020A0009B03DC01CB01BC01CD010E944100DC019E
:1020B000CB019E838D830FC080E991E09C838B834D
:1020C0008B819C810197F1F79C838B838D819E810D
:1020D00001979E838D838D819E81009769F714C03F
:1020E0006F81788589859A850E944100DC01CB014A
:1020F0009E838D838D819E819A83898389819A8134
:102100000197F1F79A83898362960FB6F894DEBF40
:102110000FBECDBFCF91DF910895DF93CF9300D055
:1021200000D0CDB7DEB79C838B8319821A828B8156
:102130009C81892F9927806589830E94CC11898190
:10214000882F90E060E070E00E9439128B81882F28
:1021500090E00E9486128AE20E9419170E94F611EE
:102160008981882F90E061E070E00E943912CE01F1
:1021700002960E94F0120E9420128A810F900F9006
:102180000F900F90CF91DF910895DF93CF93CDB74C
:10219000DEB72B970FB6F894DEBF0FBECDBF1B8204
:1021A00081E08A8381E061E041E00E94EF098C8355
:1021B00081E062E041E00E94EF098D8380E064E00D
:1021C00041E00E94EF098E8380E065E041E00E94DB
:1021D000EF098F8380E066E041E00E94EF09888785
:1021E00080E067E041E00E94EF09898780E061E0DC
:1021F00040E00E94DE0A8A8780E062E040E00E94C0
:10220000DE0A8B87198210C08981282F30E0CE0129
:102210000496FC01E20FF31F8081813011F01A82D5
:1022200006C089818F5F89838981883068F38A81BC
:102230008B838B812B960FB6F894DEBF0FBECDBF7C
:10224000CF91DF910895DF93CF9300D00F92CDB758
:10225000DEB78A836B8319828A81813071F48B8126
:10226000813019F08B81823041F48A816B8141E0A9
:102270000E94DE0A81E0898302C082E0898389812D
:102280000F900F900F90CF91DF910895DF93CF9330
:1022900000D00F92CDB7DEB78A836B8319828A8113
:1022A000813071F48B81813019F08B81823041F45F
:1022B0008A816B8140E00E94DE0A81E0898302C04E
:1022C00082E0898389810F900F900F90CF91DF91E9
:1022D0000895DF93CF9300D0CDB7DEB78A831982FC
:1022E0008A818A3048F58A81982F917080E064E075
:1022F000492F0E94DE0A8A818695982F917080E08E
:1023000065E0492F0E94DE0A8A8186958695982F7E
:10231000917080E066E0492F0E94DE0A8A818695EE
:1023200086958695982F917080E067E0492F0E94EE
:10233000DE0A81E0898302C082E0898389810F906F
:102340000F90CF91DF910895DF93CF930F92CDB788
:10235000DEB71982A1E2B0E0E1E2F0E080818C7F9B
:102360008C93E0E2F0E088E48083E2E2F0E08AE04F
:102370008083A6E5B0E0E6E5F0E0808180648C93A0
:10238000A6E5B0E0E6E5F0E0808184608C93898189
:102390000F90CF91DF910895DF93CF930F92CDB738
:1023A000DEB71982A6E5B0E0E6E5F0E08081806264
:1023B0008C93A6E5B0E0E6E5F0E0808180688C9340
:1023C000E6E5F0E080818823DCF7E1E2F0E080815F
:1023D000882F90E0887F90708830910511F481E01B
:1023E000898389810F90CF91DF910895DF93CF93F7
:1023F0000F92CDB7DEB71982A6E5B0E0E6E5F0E0D2
:10240000808180628C93A6E5B0E0E6E5F0E0808113
:1024100080688C93E6E5F0E080818823DCF7E1E2D8
:10242000F0E08081882F90E0887F90708031910566
:1024300011F481E0898389810F90CF91DF91089514
:10244000DF93CF930F92CDB7DEB71982A6E5B0E048
:10245000E6E5F0E0808180618C93A6E5B0E0E6E5FA
:10246000F0E0808180688C9389810F90CF91DF911B
:102470000895DF93CF9300D00F92CDB7DEB78A8354
:102480006B831982E3E2F0E08A81882F90E0880F65
:10249000991F982F8B81892B8083A6E5B0E0E6E514
:1024A000F0E080818F7D8C93A6E5B0E0E6E5F0E07A
:1024B000808180688C93E6E5F0E080818823DCF7FA
:1024C000E1E2F0E08081882F90E0887F9070883191
:1024D000910531F48B81882319F481E089830FC041
:1024E000E1E2F0E08081882F90E0887F9070803476
:1024F000910529F48B81813011F481E089838981F0
:102500000F900F900F90CF91DF910895DF93CF93AD
:1025100000D0CDB7DEB78A831982E3E2F0E08A818A
:102520008083A6E5B0E0E6E5F0E0808180688C93EA
:10253000E6E5F0E080818823DCF7E1E2F0E08081ED
:10254000882F90E0887F90708832910551F0E1E209
:10255000F0E08081882F90E0887F9070883B910523
:1025600011F481E0898389810F900F90CF91DF91E1
:102570000895DF93CF930F92CDB7DEB71982A6E50A
:10258000B0E0E6E5F0E0808180648C93A6E5B0E001
:10259000E6E5F0E0808180688C93E6E5F0E08081FC
:1025A0008823DCF7E1E2F0E08081882F90E0887FEB
:1025B00090708036910519F481E089830CC0E1E2C6
:1025C000F0E08081882F90E0887F9070883A9105B4
:1025D00011F481E0898389810F90CF91DF91089573
:1025E000DF93CF9300D00F92CDB7DEB79B838A8362
:1025F0001982A6E5B0E0E6E5F0E0808180688C9382
:10260000E6E5F0E080818823DCF7E1E2F0E080811C
:10261000882F90E0887F90708035910551F0E1E23D
:10262000F0E08081882F90E0887F90708835910558
:1026300049F4E3E2F0E08081EA81FB81808381E07C
:10264000898312C0E1E2F0E08081882F90E0887FEA
:1026500090708038910541F4E3E2F0E08081EA81F6
:10266000FB81808381E0898389810F900F900F9097
:10267000CF91DF910895DF93CF930F92CDB7DEB75F
:10268000198281E060E040E00E94EF0981E061E0B2
:1026900040E00E94EF0981E062E040E00E94EF0923
:1026A00081E063E040E00E94EF0981E064E041E006
:1026B0000E94EF0981E065E041E00E94EF0981E0BE
:1026C00066E041E00E94EF0981E067E041E00E949E
:1026D000EF0981E064E041E00E94DE0A81E065E00C
:1026E00041E00E94DE0A81E066E041E00E94DE0AED
:1026F00081E067E041E00E94DE0A81E060E041E0C5
:102700000E94DE0A81E061E041E00E94DE0A81E091
:1027100062E041E00E94DE0A81E063E041E00E9465
:10272000DE0A89810F90CF91DF910895DF93CF93D7
:10273000CDB7DEB7E2970FB6F894DEBF0FBECDBFC0
:102740009CA78BA71A8AEBA5FCA58FEF80831B8A19
:1027500081E08C8B82E08D8B83E08E8B84E08F8B8D
:1027600085E0888F86E0898F87E08A8FCE014B963F
:102770009FA78EA7E8E6F1E0F9ABE8ABF0E1FAAB92
:10278000E8A9F9A9008088A999A9019699AB88AB15
:10279000EEA5FFA500828EA59FA501969FA78EA7F7
:1027A0009AA991509AABEAA9EE2351F7188AE8C08A
:1027B0008889282F30E0CE014796FC01E20FF31FF5
:1027C000908181E0692F40E00E94DE0A198AC3C02F
:1027D0008989282F30E0CE014396FC01E20FF31FD8
:1027E000908181E0692F0E94F50C8F878F85882367
:1027F00009F0AEC080E090E0A0E2B1E48B879C8756
:10280000AD87BE876B857C858D859E8520E030E019
:102810004AE755E40E949B03DC01CB018F83988734
:10282000A987BA876F81788589859A8520E030E00D
:1028300040E85FE30E94A10588232CF481E090E04A
:102840009E838D833FC06F81788589859A8520E03E
:102850003FEF4FE757E40E94410518164CF56B8592
:102860007C858D859E8520E030E040E251E40E9429
:102870009B03DC01CB01BC01CD010E944100DC01C6
:10288000CB019E838D830FC080E991E09C838B8375
:102890008B819C810197F1F79C838B838D819E8135
:1028A00001979E838D838D819E81009769F714C067
:1028B0006F81788589859A850E944100DC01CB0172
:1028C0009E838D838D819E819A83898389819A815C
:1028D0000197F1F79A8389838989282F30E0CE0107
:1028E0004396FC01E20FF31F908181E0692F0E9463
:1028F000F50C8F878F85882359F58989282F30E03B
:102900008889482F50E0220F331F220F331FCE013A
:102910000196820F931F840F951FFC017A96808188
:10292000EBA5FCA580830EC08989282F30E0CE015D
:102930004396FC01E20FF31F908181E0692F0E9412
:10294000F50C8F878F85882379F3F1E0FDA71EC0F2
:1029500089898F5F898B8989843008F439CF888988
:10296000282F30E0CE014796FC01E20FF31F908143
:1029700081E0692F41E00E94DE0A88898F5F888BA1
:102980008889843008F414CF8A898DA78DA5E296B2
:102990000FB6F894DEBF0FBECDBFCF91DF91089583
:1029A000DF93CF9300D000D000D0CDB7DEB78E83B9
:1029B00084E08A8385E08B8386E08C8387E08D8347
:1029C000198220C08981282F30E0CE010296FC01B7
:1029D000E20FF31F40818E81282F30E08981882FFC
:1029E00090E0B90102C0759567958A95E2F7CB0131
:1029F000982F917080E0642F492F0E94DE0A898110
:102A00008F5F898389818430E8F226960FB6F89427
:102A1000DEBF0FBECDBFCF91DF910895DF93CF937F
:102A2000CDB7DEB72E970FB6F894DEBF0FBECDBF81
:102A300080E063E041E00E94DE0A80E090E0A0E0F8
:102A4000B0E48B879C87AD87BE876B857C858D8541
:102A50009E8520E030E04AE755E40E949B03DC01BC
:102A6000CB018F839887A987BA876F8178858985FD
:102A70009A8520E030E040E85FE30E94A1058823CA
:102A80002CF481E090E09E838D833FC06F81788538
:102A900089859A8520E03FEF4FE757E40E94410582
:102AA00018164CF56B857C858D859E8520E030E081
:102AB00040E251E40E949B03DC01CB01BC01CD014B
:102AC0000E944100DC01CB019E838D830FC080E911
:102AD00091E09C838B838B819C810197F1F79C8390
:102AE0008B838D819E8101979E838D838D819E81B5
:102AF000009769F714C06F81788589859A850E944F
:102B00004100DC01CB019E838D838D819E819A8360
:102B1000898389819A810197F1F79A83898380E07B
:102B200063E040E00E94DE0A2E960FB6F894DEBF06
:102B30000FBECDBFCF91DF910895DF93CF930F925A
:102B4000CDB7DEB781E0898380E061E041E00E949B
:102B5000EF0980E062E041E00E94EF0980E063E07D
:102B600041E00E94EF0980E064E041E00E94EF094B
:102B700080E065E041E00E94EF0980E066E041E02E
:102B80000E94EF0980E067E041E00E94EF0989813F
:102B90000F90CF91DF910895DF93CF93CDB7DEB73C
:102BA0002F970FB6F894DEBF0FBECDBF81E08F87A1
:102BB0000E949D1580E090E0A0E2B2E48B879C87A4
:102BC000AD87BE876B857C858D859E8520E030E056
:102BD0004AE755E40E949B03DC01CB018F83988771
:102BE000A987BA876F81788589859A8520E030E04A
:102BF00040E85FE30E94A10588232CF481E090E087
:102C00009E838D833FC06F81788589859A8520E07A
:102C10003FEF4FE757E40E94410518164CF56B85CE
:102C20007C858D859E8520E030E040E251E40E9465
:102C30009B03DC01CB01BC01CD010E944100DC0102
:102C4000CB019E838D830FC080E991E09C838B83B1
:102C50008B819C810197F1F79C838B838D819E8171
:102C600001979E838D838D819E81009769F714C0A3
:102C70006F81788589859A850E944100DC01CB01AE
:102C80009E838D838D819E819A83898389819A8198
:102C90000197F1F79A83898382E00E94D0140E9401
:102CA0000E1582E00E94D0140E940E158CE00E9446
:102CB000D0140E940E158FE00E946A160E948E1694
:102CC0008F852F960FB6F894DEBF0FBECDBFCF9184
:102CD000DF910895DF93CF9300D0CDB7DEB78A831D
:102CE00081E0898380E061E040E00E94DE0A80E0CC
:102CF00062E040E00E94DE0A8A8182958F700E9425
:102D0000D0140E940E158A810E94D0140E940E15C4
:102D100089810F900F90CF91DF910895DF93CF932A
:102D2000CDB7DEB72F970FB6F894DEBF0FBECDBF7D
:102D300081E08F8781E00E946A1680E090E0A0E049
:102D4000B0E48B879C87AD87BE876B857C858D853E
:102D50009E8520E030E04AE755E40E949B03DC01B9
:102D6000CB018F839887A987BA876F8178858985FA
:102D70009A8520E030E040E85FE30E94A1058823C7
:102D80002CF481E090E09E838D833FC06F81788535
:102D900089859A8520E03FEF4FE757E40E9441057F
:102DA00018164CF56B857C858D859E8520E030E07E
:102DB00040E251E40E949B03DC01CB01BC01CD0148
:102DC0000E944100DC01CB019E838D830FC080E90E
:102DD00091E09C838B838B819C810197F1F79C838D
:102DE0008B838D819E8101979E838D838D819E81B2
:102DF000009769F714C06F81788589859A850E944C
:102E00004100DC01CB019E838D838D819E819A835D
:102E1000898389819A810197F1F79A8389838F85C4
:102E20002F960FB6F894DEBF0FBECDBFCF91DF91C6
:102E30000895DF93CF9300D0CDB7DEB78A8381E0CA
:102E4000898380E061E041E00E94DE0A80E062E088
:102E500040E00E94DE0A8A8182958F700E94D01421
:102E60000E940E158A810E94D0140E940E1589813D
:102E70000F900F90CF91DF910895DF93CF9300D003
:102E800000D0CDB7DEB79C838B831A8219828B81E9
:102E90009C810097E9F00EC08981282F30E08B815A
:102EA0009C81FC01E20FF31F80810E941917898128
:102EB0008F5F89838981282F30E08B819C81FC0181
:102EC000E20FF31F8081882339F781E08A8302C0F3
:102ED00083E08A838A810F900F900F900F90CF919B
:102EE000DF910895EF92FF920F931F93DF93CF939B
:102EF000CDB7DEB72A970FB6F894DEBF0FBECDBFB1
:102F00006F83788789879A8781E08E831A821B82F4
:102F10001C821D8219828F819885A985BA85BB2361
:102F20000CF049C08DE20E9419178F819885A98500
:102F3000BA85B095A095909581959F4FAF4FBF4FA3
:102F40008F839887A987BA8736C08A819B81AC8195
:102F5000BD812AE030E040E050E0BC01CD010E949C
:102F6000801B7B018C018F819885A985BA852AE019
:102F700030E040E050E0BC01CD010E94C11BDC010B
:102F8000CB018E0D9F1DA01FB11F8A839B83AC8335
:102F9000BD838F819885A985BA852AE030E040E01D
:102FA00050E0BC01CD010E94C11BDA01C9018F8331
:102FB0009887A987BA878F819885A985BA85009750
:102FC000A105B10511F68A819B81AC81BD812AE002
:102FD00030E040E050E0BC01CD010E949F1BDC01CD
:102FE000CB0189838981805D0E9419178A819B8129
:102FF000AC81BD812AE030E040E050E0BC01CD0171
:103000000E949F1BDA01C9018A839B83AC83BD8325
:103010008A819B81AC81BD810097A105B10599F69C
:103020008E812A960FB6F894DEBF0FBECDBFCF912A
:10303000DF911F910F91FF90EF900895AF92BF9293
:10304000CF92DF92EF92FF920F931F93DF93CF9374
:10305000CDB7DEB72E970FB6F894DEBF0FBECDBF4B
:103060006B877C878D879E8781E08A871A821B8287
:103070001C821D821E821F821886198619826B850A
:103080007C858D859E8520E030E040E050E00E9408
:10309000A105882364F48DE20E9419178B859C8515
:1030A000AD85BE85B0588B879C87AD87BE876B8505
:1030B0007C858D859E850E946D00A22EB32EC42E28
:1030C000D52EE62EF72E082F192FAA82BB82CC828E
:1030D000DD82EE82FF82088719872A813B814C813D
:1030E0005D816E817F81888599850E9415019B0194
:1030F000AC016B857C858D859E850E943D03DC013E
:10310000CB01BC01CD0120E030E048EC52E40E944C
:103110009B03DC01CB01BC01CD010E944100DC011D
:10312000CB0189838A819B81AC81BD81BC01CD01AA
:103130000E9472178EE20E9419178981882F90E0F1
:10314000A0E0B0E0BC01CD010E9472178A852E96E6
:103150000FB6F894DEBF0FBECDBFCF91DF911F91A8
:103160000F91FF90EF90DF90CF90BF90AF900895B8
:10317000DF93CF930F92CDB7DEB781E0898382E0F2
:103180000E946A1689810F90CF91DF910895DF9395
:10319000CF9300D000D0CDB7DEB78B836C831A827B
:1031A0008C81882319F08C818130C9F48C81882F1F
:1031B00090E00024969587950794969587950794B7
:1031C000982F802D982F8B81890F89838981806822
:1031D000898389810E946A1681E08A8302C082E025
:1031E0008A838A810F900F900F900F90CF91DF917B
:1031F0000895DF93CF93CDB7DEB728970FB6F89435
:10320000DEBF0FBECDBF9D838C836E834F83288727
:103210001B828E81882F90E0880F991F880F991F3D
:10322000880F991F8A838A8180648A838A810E9499
:103230006A1619820EC08981282F30E08C819D8109
:10324000FC01E20FF31F80810E94191789818F5FB3
:1032500089838981883078F38F8168850E94C718B7
:103260008E810E9419178B8128960FB6F894DEBFC5
:103270000FBECDBFCF91DF910895DF93CF9300D0E4
:103280000F92CDB7DEB78B8381E08A83198206C0A7
:1032900080E10E946A1689818F5F898399818B8181
:1032A0009817B0F380E20E94191780E10E946A1615
:1032B0008A810F900F900F90CF91DF910895DF9347
:1032C000CF930F92CDB7DEB78983E0E2F0E08CE0D8
:1032D0008083A1E2B0E0E1E2F0E080818E7F8C9318
:1032E000A1E2B0E0E1E2F0E080818D7F8C93898102
:1032F000882329F0E2E2F0E08981880F8083A6E547
:10330000B0E0E6E5F0E0808180648C93A6E5B0E073
:10331000E6E5F0E0808184608C930F90CF91DF919F
:103320000895DF93CF930F92CDB7DEB78983E2E2A2
:10333000F0E08981880F8083A6E5B0E0E6E5F0E063
:10334000808180648C93A6E5B0E0E6E5F0E08081C2
:1033500084608C930F90CF91DF910895DF93CF938A
:103360000F92CDB7DEB71982A6E5B0E0E6E5F0E052
:10337000808180628C93A6E5B0E0E6E5F0E0808194
:1033800080688C93E6E5F0E080818823DCF7E1E259
:10339000F0E08081882F90E0887F907088309105E0
:1033A00011F081E0898389810F90CF91DF91089599
:1033B000DF93CF930F92CDB7DEB71982A6E5B0E0C9
:1033C000E6E5F0E0808180628C93A6E5B0E0E6E57A
:1033D000F0E0808180688C93E6E5F0E080818823CE
:1033E000DCF7E1E2F0E08081882F90E0887F907048
:1033F0008031910511F082E0898389810F90CF910E
:10340000DF910895DF93CF9300D0CDB7DEB78A83E5
:103410001982E3E2F0E08A81880F8083A3E2B0E0C2
:10342000E3E2F0E080818E7F8C93A6E5B0E0E6E5F4
:10343000F0E080818F7D8C93A6E5B0E0E6E5F0E0DA
:10344000808180688C93E6E5F0E080818823DCF75A
:10345000E1E2F0E08081882F90E0887F90708831F1
:10346000910511F083E0898389810F900F90CF91AE
:10347000DF910895DF93CF9300D0CDB7DEB78A8375
:103480001982E3E2F0E08A81880F8083A3E2B0E052
:10349000E3E2F0E0808181608C93A6E5B0E0E6E5B0
:1034A000F0E080818F7D8C93A6E5B0E0E6E5F0E06A
:1034B000808180688C93E6E5F0E080818823DCF7EA
:1034C000E1E2F0E08081882F90E0887F9070803486
:1034D000910511F084E0898389810F900F90CF913D
:1034E000DF910895DF93CF9300D0CDB7DEB78A8305
:1034F0001982E3E2F0E08A818083A6E5B0E0E6E5A8
:10350000F0E0808180688C93E6E5F0E0808188239C
:10351000DCF7E1E2F0E08081882F90E0887F907016
:103520008832910511F085E0898389810F900F9091
:10353000CF91DF910895DF93CF9300D00F92CDB755
:10354000DEB79B838A831982A6E5B0E0E6E5F0E06A
:10355000808180688C93E6E5F0E080818823DCF749
:10356000E1E2F0E08081882F90E0887F90708035E4
:10357000910519F086E0898306C0E3E2F0E08081DE
:10358000EA81FB81808389810F900F900F90CF910A
:10359000DF910895DF93CF93CDB7DEB7A6E5B0E016
:1035A000E6E5F0E0808180618C93A6E5B0E0E6E599
:1035B000F0E0808180688C93CF91DF910895DF9354
:1035C000CF9300D0CDB7DEB781E08A83198289819D
:1035D0008068898389818260898389818460898305
:1035E000E0E4F0E089818083E9E2F0E087E680832F
:1035F000AAE2B0E0EAE2F0E0808180618C93AAE286
:10360000B0E0EAE2F0E0808188608C938A810F90DC
:103610000F90CF91DF910895DF93CF9300D00F9259
:10362000CDB7DEB79B838A8381E08983ABE2B0E0CC
:10363000EBE2F0E08081881F8827881F8C938C91B3
:103640008823A1F3ECE2F0E08081EA81FB818083B2
:1036500089810F900F900F90CF91DF910895DF93A4
:10366000CF9300D0CDB7DEB78A8381E08983ABE208
:10367000B0E0EBE2F0E08081829586958770817002
:103680008C938C91882399F3ECE2F0E08A8180831B
:1036900089810F900F90CF91DF910895DF93CF93A1
:1036A0000F92CDB7DEB719820E94CC1580E00E9440
:1036B0005F198BE290E06DE10E94E90F8DE290E0EE
:1036C00061E20E94E90F8DE290E00E948D108983F3
:1036D0008981882F90E0A0E0B0E0BC01CD010E947C
:1036E00072178BE290E00E948D1089838981882F68
:1036F00090E0A0E0B0E0BC01CD010E947217FFCFC6
:10370000629FD001739FF001829FE00DF11D649FC5
:10371000E00DF11D929FF00D839FF00D749FF00D51
:10372000659FF00D9927729FB00DE11DF91F639FF2
:10373000B00DE11DF91FBD01CF0111240895A1E2D3
:103740001A2EAA1BBB1BFD010DC0AA1FBB1FEE1F1B
:10375000FF1FA217B307E407F50720F0A21BB30B66
:10376000E40BF50B661F771F881F991F1A9469F7E2
:1037700060957095809590959B01AC01BD01CF013E
:10378000089597FB092E05260ED057FD04D0D7DFEC
:103790000AD0001C38F450954095309521953F4F44
:1037A0004F4F5F4F0895F6F790958095709561950E
:1037B0007F4F8F4F9F4F08952F923F924F925F926E
:1037C0006F927F928F929F92AF92BF92CF92DF9231
:1037D000EF92FF920F931F93CF93DF93CDB7DEB796
:1037E000CA1BDB0B0FB6F894DEBF0FBECDBF09942A
:1037F0002A88398848885F846E847D848C849B8481
:10380000AA84B984C884DF80EE80FD800C811B818E
:10381000AA81B981CE0FD11D0FB6F894DEBF0FBEBD
:0A382000CDBFED010895F894FFCF2D
:10382A00000000000000000000010202030303037D
:10383A000404040404040404050505050505050536
:10384A000505050505050505060606060606060616
:10385A0006060606060606060606060606060606FE
:10386A0006060606060606060707070707070707E6
:10387A0007070707070707070707070707070707CE
:10388A0007070707070707070707070707070707BE
:10389A0007070707070707070707070707070707AE
:1038AA000707070707070707080808080808080896
:1038BA00080808080808080808080808080808087E
:1038CA00080808080808080808080808080808086E
:1038DA00080808080808080808080808080808085E
:1038EA00080808080808080808080808080808084E
:1038FA00080808080808080808080808080808083E
:10390A00080808080808080808080808080808082D
:10391A00080808080808080808080808080808081D
:10392A0008080808080808080708092F040506589F
:08393A000102032D43003D2BA7
:00000001FF
