:100000000C942A000C943F000C943F000C943F0089
:100010000C943F000C943F000C943F000C943F0064
:100020000C943F000C943F000C943F000C943F0054
:100030000C943F000C943F000C943F000C943F0044
:100040000C943F000C943F000C943F000C943F0034
:100050000C943F0011241FBECFE5D8E0DEBFCDBF1A
:1000600011E0A0E6B0E0E6EDF0E302C005900D92ED
:10007000A837B107D9F70E9495170C9469180C940A
:100080000000EF92FF920F931F937B018C0120E001
:1000900030E040E05FE40E94710588238CF0C801E5
:1000A000B70120E030E040E05FE40E943D030E94A1
:1000B0002F069B01AC01205030404040504806C004
:1000C000C801B7010E942F069B01AC01B901CA010A
:1000D0001F910F91FF90EF900895A0E0B0E0E3E74B
:1000E000F0E00C9432187B018C0120E030E040E815
:1000F0005FE30E94A10588234CF4AA24BB24CC24EE
:10010000DD24EE24FF2400E010E086C0C801B70122
:1001100020E030E040E85FE40E94A105882354F429
:10012000C801B7010E9441005B016C01EE24FF246D
:10013000870172C0C801B70120E030E040E85FE508
:100140000E94A10587FD0FC0AA24AA94BB24BA94DB
:10015000CC24CA94DD24DA94EE24EA94FF24FA94A1
:100160000FEF1FEF59C0C801B70120E030E040E8B1
:100170005FE20E949B037B018C0122243324210136
:1001800090E1A92EB12CC12CD12CC0E0D0E061E0CF
:1001900070E080E090E00A2C04C0660F771F881F93
:1001A000991F0A94D2F70E9483063B014C01C801B3
:1001B000B701A40193010E947105882364F02A28E5
:1001C0003B284C285D28C801B701A40193010E9477
:1001D00095047B018C01D694C794B794A79421967B
:1001E000C530D105A1F6C801B70120E030E040E8F4
:1001F0005FE40E949B030E9441005B016C019B0134
:10020000A60160E070E080E090E0022D0E947B0794
:1002100059016A017B018C019501A601B701C80152
:10022000CDB7DEB7E2E10C944E18A2E0B0E0EBE10E
:10023000F1E00C943218122FB32EA42E952E862E98
:10024000372E282E9A83C22ED32EE42EF52EA70108
:10025000960160E070E080E090E02117A1F43B158A
:1002600091F44A1581F4591571F4681561F4731508
:1002700051F4821541F4AA819A1729F4C701B601F5
:100280000E948306AAC0212F3B2D4A2D592D682D8F
:10029000732D822D9A8100E20E94FC06C901DA01C9
:1002A0008030E0E09E07E1E0AE07E0E0BE0780F4CA
:1002B0008F3F9105A105B10531F028F028E030E02D
:1002C00040E050E016C020E030E040E050E011C0D7
:1002D0008030F0E09F07F0E0AF07F1E0BF0728F0C3
:1002E00028E130E040E050E004C020E130E040E0B0
:1002F00050E0022E04C0B695A795979587950A946D
:10030000D2F7FC01E859FF4F808129013A01480EDC
:10031000511C611C711C4982212F3B2D4A2D592DE6
:10032000682D732D822D9A81042D0E94FC06C9012F
:10033000DA014C015D0180E290E08419950904C066
:10034000CC0CDD1CEE1CFF1C8A95D2F7C114D10425
:10035000E104F10441F081E090E0A0E0B0E0882AFF
:10036000992AAA2ABB2A90E2491651046104710411
:1003700059F40F2EF0E0EF2EF0E0FF2EF0E80F2FF3
:10038000FFE41F2FF02D21C0AFE14A165104610494
:10039000710459F40F2EF0E0EF2EF0E0FF2EF0E0A4
:1003A0000F2FFFE41F2FF02D10C061E070E080E000
:1003B00090E0098004C0660F771F881F991F0A9478
:1003C000D2F70E94D1057B018C01C501B4010E94C6
:1003D0008306A80197010E949B032296E2E10C94F8
:1003E0004E18A0E0B0E0E7EFF1E00C943218DC0129
:1003F0002B01FA019C91923008F439C1EB018881FC
:10040000823008F433C1943069F4843009F02FC18C
:1004100011969C9111978981981709F428C1A0E63B
:10042000B0E025C1843009F421C18230A9F49230B2
:1004300009F01DC19A01AD0188E0EA010990AE0101
:10044000E90109929E018150C1F7E201898111966B
:100450009C918923818308C1923009F407C11296C7
:100460002D903C901397EB018A819B811496AD905F
:10047000BD90CD90DC901797EC80FD800E811F81A0
:100480009101281B390BB90137FF04C06627772774
:10049000621B730B603271050CF061C012161306FB
:1004A0006CF537014801062E04C096948794779422
:1004B00067940A94D2F721E030E040E050E004C0B5
:1004C000220F331F441F551F6A95D2F72150304029
:1004D000404050402E213F2140235123211531051A
:1004E0004105510521F021E030E040E050E0790184
:1004F0008A01E628F728082919293CC0232BD1F1C5
:10050000260E371E35014601062E04C096948794A8
:10051000779467940A94D2F721E030E040E050E00D
:1005200004C0220F331F441F551F6A95D2F7215074
:100530003040404050402A213B214C215D21211573
:1005400031054105510521F021E030E040E050E067
:1005500059016A01A628B728C828D9280BC08215D6
:1005600093052CF01C01AA24BB24650103C0EE24D2
:10057000FF24870111969C91D20111968C919817B6
:1005800009F445C0992339F0A80197012A193B09BC
:100590004C095D0906C0A60195012E193F09400BC3
:1005A000510B57FD08C01182338222822483358388
:1005B000468357831DC081E081833382228288274E
:1005C0009927DC01821B930BA40BB50B84839583C5
:1005D000A683B7830DC0220F331F441F551F2483EA
:1005E00035834683578382819381019793838283E6
:1005F0002481358146815781DA01C9010197A1091A
:10060000B1098F5F9F4FAF4FBF4328F30BC091835A
:1006100033822282EA0CFB1C0C1D1D1DE482F58234
:100620000683178383E08083248135814681578147
:1006300057FF1AC0C901AA2797FDA095BA2F81704C
:100640009070A070B0705695479537952795822B7E
:10065000932BA42BB52B84839583A683B7838281A8
:100660009381019693838283DF0101C0D201CD0182
:10067000CDB7DEB7E2E10C944E18A0E2B0E0E3E4BF
:10068000F3E00C943E1869837A838B839C832D83DB
:100690003E834F835887E9E0EE2EF12CEC0EFD1ED1
:1006A000CE010196B7010E941E098E010F5E1F4FF9
:1006B000CE010596B8010E941E098A8991E089271A
:1006C0008A8BC701B801AE01475E5F4F0E94F101FE
:1006D0000E944908A096E6E00C945A18A0E2B0E007
:1006E000E4E7F3E00C943E1869837A838B839C8360
:1006F0002D833E834F835887F9E0EF2EF12CEC0ECB
:10070000FD1ECE010196B7010E941E098E010F5EEB
:100710001F4FCE010596B8010E941E09C701B801FE
:10072000AE01475E5F4F0E94F1010E944908A0960A
:10073000E6E00C945A18A0E2B0E0E1EAF3E00C9491
:10074000321869837A838B839C832D833E834F8306
:100750005887CE010196BE01675F7F4F0E941E0938
:10076000CE010596BE016F5E7F4F0E941E099985DE
:10077000923088F089898230C8F0943019F4823040
:1007800051F404C0843029F4923081F480E690E082
:10079000C6C0923049F420E09A858A89981321E0F6
:1007A0002A87CE010996BBC0823049F420E09A85A1
:1007B0008A89981321E02A8BCE014196B0C02D84FE
:1007C0003E844F8458886D887E888F88988CEE246C
:1007D000FF248701AA24BB24650140E050E060E0CB
:1007E00070E0E0E0F0E0C10181709070892BE9F0E9
:1007F000E60CF71C081D191D9A01AB012A0D3B1DC3
:100800004C1D5D1D80E090E0A0E0B0E0E614F70430
:100810000805190520F481E090E0A0E0B0E0BA01FD
:10082000A901480F591F6A1F7B1FAA0CBB1CCC1CB7
:10083000DD1C97FE08C081E090E0A0E0B0E0A82AAF
:10084000B92ACA2ADB2A3196E032F10549F0660C52
:10085000771C881C991C5694479437942794C3CFCF
:10086000FA85EA892B893C898B859C85280F391F5D
:100870002E5F3F4F17C0CA0181709070892B61F0C5
:1008800016950795F794E79480E090E0A0E0B0E833
:10089000E82AF92A0A2B1B2B7695679557954795D9
:1008A0002F5F3F4F77FDE7CF0CC0440F551F661FEA
:1008B000771F17FD4160EE0CFF1C001F111F215018
:1008C0003040403090E0590790E0690790E47907A4
:1008D00060F32B8F3C8FDB01CA018F779070A07083
:1008E000B07080349105A105B10561F447FD0AC0DF
:1008F000E114F1040105110529F0405C5F4F6F4FD1
:100900007F4F40781A8EFE1711F081E08A8F4D8F4D
:100910005E8F6F8F78A383E0898FCE0149960E9406
:100920004908A096E2E10C944E18A8E1B0E0EBE98A
:10093000F4E00C943A1869837A838B839C832D832B
:100940003E834F835887B9E0EB2EF12CEC0EFD1E51
:10095000CE010196B7010E941E098E010F5E1F4F46
:10096000CE010596B8010E941E092985223008F49F
:100970007EC03989323010F4B8017CC08A859A89EA
:1009800089278A87243011F0223031F4231709F0A7
:100990006EC060E670E06EC0343039F41D861E868D
:1009A0001F86188A1C861B8604C0323021F484E01E
:1009B0008987B7015FC02B853C858B899C89281B63
:1009C000390B3C872B87ED84FE840F851889AD8811
:1009D000BE88CF88D88CEA14FB040C051D0540F4B2
:1009E000EE0CFF1C001F111F215030403C872B874D
:1009F00020E030E040E050E080E090E0A0E0B0E4B3
:100A000060E070E0EA14FB040C051D0540F0282BA3
:100A1000392B4A2B5B2BEA18FB080C091D09B695EC
:100A2000A79597958795EE0CFF1C001F111F6F5F10
:100A30007F4F6F31710531F7DA01C9018F779070FF
:100A4000A070B07080349105A105B10561F427FD57
:100A50000AC0E114F1040105110529F0205C3F4FA3
:100A60004F4F5F4F20782D873E874F87588BBE01B1
:100A7000675F7F4FCB010E9449086896EAE00C94BB
:100A80005618A8E1B0E0E7E4F5E00C943E1869835D
:100A90007A838B839C832D833E834F83588789E0A1
:100AA000E82EF12CEC0EFD1ECE010196B7010E943E
:100AB0001E098E010F5E1F4FCE010596B8010E94E0
:100AC0001E098985823040F08989823028F0C7016B
:100AD000B8010E94960901C08FEF6896E6E00C9479
:100AE0005A18A8E1B0E0E7E7F5E00C943E186983F6
:100AF0007A838B839C832D833E834F83588789E041
:100B0000E82EF12CEC0EFD1ECE010196B7010E94DD
:100B10001E098E010F5E1F4FCE010596B8010E947F
:100B20001E098985823040F08989823028F0C7010A
:100B3000B8010E94960901C08FEF6896E6E00C9418
:100B40005A18A8E1B0E0E7EAF5E00C943E18698392
:100B50007A838B839C832D833E834F83588789E0E0
:100B6000E82EF12CEC0EFD1ECE010196B7010E947D
:100B70001E098E010F5E1F4FCE010596B8010E941F
:100B80001E098985823040F08989823028F0C701AA
:100B9000B8010E94960901C081E06896E6E00C94D5
:100BA0005A18A8E0B0E0E7EDF5E00C943B189B0183
:100BB000AC0183E08983DA01C9018827B7FD8395F9
:100BC0009927AA27BB27B82E2115310541055105C4
:100BD00019F482E089833AC08823A9F0203080E0AC
:100BE000380780E0480780E8580729F460E070E0A3
:100BF00080E09FEC30C0EE24FF248701E21AF30A64
:100C0000040B150B02C079018A018EE1C82ED12C8C
:100C1000DC82CB82ED82FE820F831887C801B70188
:100C20000E94FA0701971816190684F4082E04C0CA
:100C3000EE0CFF1C001F111F0A94D2F7ED82FE82FA
:100C40000F831887C81AD90ADC82CB82BA82CE01F8
:100C500001960E9449082896E9E00C945718ACE0E8
:100C6000B0E0E5E3F6E00C94421869837A838B8365
:100C70009C83CE010196BE016B5F7F4F0E941E09CF
:100C80008D81823061F1823050F1843021F48E8187
:100C9000882351F12EC02F81388537FD20C06E8109
:100CA0002F3131051CF06623F9F023C08EE190E06E
:100CB000821B930B29853A854B855C8504C056952C
:100CC0004795379527958A95D2F76623B1F05095C9
:100CD0004095309521953F4F4F4F5F4F0EC020E01C
:100CE00030E040E050E009C02FEF3FEF4FEF5FE70B
:100CF00004C020E030E040E050E8B901CA012C9681
:100D0000E2E00C945E18A8E0B0E0E9E8F6E00C94AC
:100D10003A187B018C01611571058105910519F463
:100D200082E0898360C083E089838EE1C82ED12C64
:100D3000DC82CB82ED82FE820F831887C801B70167
:100D40000E94FA07FC013197F7FF3BC022273327A7
:100D50002E1B3F0B57016801022E04C0D694C79486
:100D6000B794A7940A94D2F740E050E060E070E0B6
:100D700081E090E0A0E0B0E004C0880F991FAA1FB6
:100D8000BB1F2A95D2F70197A109B1098E219F2196
:100D9000A023B1230097A105B10521F041E050E067
:100DA00060E070E04A295B296C297D294D835E83D0
:100DB0006F8378878EE190E08E1B9F0B9C838B83E3
:100DC00012C0309781F00E2E04C0EE0CFF1C001FE5
:100DD000111F0A94D2F7ED82FE820F831887CE1A74
:100DE000DF0ADC82CB821A82CE0101960E9449087A
:100DF0002896EAE00C945618EF92FF920F93DF9337
:100E0000CF93CDB7DEB760970FB6F894DEBF0FBEB5
:100E1000CDBFA82F002309F461C07E010894E11C16
:100E2000F11C88E0F70111928A95E9F729833A834A
:100E30004B835C836D837E83AF83988780E2801BC6
:100E4000E82FFF27E7FDF0954D815E816F81788562
:100E5000181684F01D861E861F86188A88279927F3
:100E60008E1B9F0B04C076956795579547958A957D
:100E7000D2F728C0202F332727FD3095DB01CA0188
:100E8000022E04C0B695A795979587950A94D2F738
:100E90008D879E87AF87B88B04C0440F551F661F90
:100EA000771FEA95D2F789819A81AB81BC8104C012
:100EB000B695A795979587952A95D2F7482B592BE4
:100EC0006A2B7B2B49875A876B877C8729853A85D4
:100ED0004B855C856D857E85AF8598898A2F609668
:100EE0000FB6F894DEBF0FBECDBFCF91DF910F914B
:100EF000FF90EF900895EF92FF920F93DF93CF93BF
:100F0000CDB7DEB760970FB6F894DEBF0FBECDBF8A
:100F1000A82F002309F461C07E010894E11CF11C94
:100F200088E0F70111928A95E9F729833A834B8388
:100F30005C836D837E83AF83988780E2801BE82F7C
:100F4000FF27E7FDF09549815A816B817C81181656
:100F500084F019861A861B861C86882799278E1B83
:100F60009F0B04C0440F551F661F771F8A95D2F749
:100F700028C0202F332727FD3095DB01CA01022E20
:100F800004C0880F991FAA1FBB1F0A94D2F7898734
:100F90009A87AB87BC8704C0769567955795479528
:100FA000EA95D2F78D819E81AF81B88504C0880F04
:100FB000991FAA1FBB1F2A95D2F7482B592B6A2BC2
:100FC0007B2B4D875E876F87788B29853A854B858C
:100FD0005C856D857E85AF8598898A2F60960FB672
:100FE000F894DEBF0FBECDBFCF91DF910F91FF9080
:100FF000EF900895EF92FF920F931F937B018C0166
:1010000080E0E81680E0F80681E0080780E0180735
:1010100088F48FEFE816F1040105110531F028F08E
:1010200088E090E0A0E0B0E017C080E090E0A0E0B1
:10103000B0E012C080E0E81680E0F80680E0080723
:1010400081E0180728F088E190E0A0E0B0E004C05B
:1010500080E190E0A0E0B0E020E230E040E050E04D
:10106000281B390B4A0B5B0B04C016950795F794A8
:10107000E7948A95D2F7F701E859FF4F8081281B42
:10108000310941095109C9011F910F91FF90EF905A
:101090000895DF92EF92FF920F931F93FC01E4807B
:1010A000F58006811781D1808081823048F480E00C
:1010B00090E0A0E1B0E0E82AF92A0A2B1B2BA5C09A
:1010C000843009F49FC0823021F4EE24FF2487018C
:1010D00005C0E114F1040105110519F4E0E0F0E0A8
:1010E00096C0628173819FEF623879070CF05BC014
:1010F00022E83FEF261B370B2A3131052CF020E088
:1011000030E040E050E02AC0B801A701022E04C040
:1011100076956795579547950A94D2F781E090E0C8
:10112000A0E0B0E004C0880F991FAA1FBB1F2A953A
:10113000D2F70197A109B1098E219F21A023B123E4
:101140000097A105B10521F081E090E0A0E0B0E0BA
:101150009A01AB01282B392B4A2B5B2BDA01C901F1
:101160008F779070A070B07080349105A105B105A3
:1011700039F427FF09C0205C3F4F4F4F5F4F04C039
:10118000215C3F4F4F4F5F4FE0E0F0E02030A0E0A8
:101190003A07A0E04A07A0E45A0710F0E1E0F0E0C7
:1011A00079018A0127C06038710564F5FB01E158B7
:1011B000FF4FD801C7018F779070A070B070803456
:1011C0009105A105B10539F4E7FE0DC080E490E07A
:1011D000A0E0B0E004C08FE390E0A0E0B0E0E80E53
:1011E000F91E0A1F1B1F17FF05C016950795F794D8
:1011F000E794319687E016950795F794E7948A95DA
:10120000D1F705C0EE24FF248701EFEFF0E06E2F49
:10121000679566276795902F9F77D794DD24D7949D
:101220008E2F8695492F462B582F5D29B701CA016D
:101230001F910F91FF90EF90DF900895FC01DB016B
:10124000408151812281622F6F7770E0221F222717
:10125000221F9381892F880F822B282F30E0991F1E
:101260009927991F11969C93119721153105A9F57E
:10127000411551056105710511F482E037C082E81E
:101280009FEF13969C938E9312979A01AB0167E0A0
:10129000220F331F441F551F6A95D1F783E08C93AB
:1012A0000DC0220F331F441F551F12968D919C9124
:1012B0001397019713969C938E931297203080E09A
:1012C000380780E0480780E4580758F314962D93B8
:1012D0003D934D935C93179708952F3F310579F413
:1012E000411551056105710519F484E08C93089549
:1012F00064FF03C081E08C9312C01C9210C02F5772
:10130000304013963C932E93129783E08C9387E0A2
:10131000440F551F661F771F8A95D1F77064149686
:101320004D935D936D937C93179708951F93DC0104
:10133000FB019C91923008F447C08081823008F410
:1013400043C0943051F411961C91843099F58181F9
:10135000682F70E0611B71093FC0843021F092302A
:1013600031F48230B9F18181882389F12DC0119641
:101370001C9111978230F1F081811817D9F41296DF
:101380002D913C911397828193818217930794F05A
:1013900028173907BCF014968D919D910D90BC9142
:1013A000A02D2481358146815781281739074A07A6
:1013B0005B0718F4112341F00AC082179307A407B2
:1013C000B50740F4112319F061E070E005C06FEF3C
:1013D0007FEF02C060E070E0CB011F910895DF93C2
:1013E000CF930F92CDB7DEB781E08983A7E2B0E05B
:1013F000E7E2F0E080818F738C93A7E2B0E0E7E250
:10140000F0E0808180648C93A7E2B0E0E7E2F0E056
:10141000808180628C93A6E2B0E0E6E2F0E0808119
:10142000887F8C93A6E2B0E0E6E2F0E080818760FE
:101430008C93A6E2B0E0E6E2F0E0808180688C93D5
:1014400089810F90CF91DF910895DF93CF9300D0E2
:1014500000D0CDB7DEB78A837C836B8381E089833C
:10146000A7E2B0E0E7E2F0E08081807E8C93A7E223
:10147000B0E0E7E2F0E090818A81892B8C93A6E2CC
:10148000B0E0E6E2F0E0808180648C93E6E2F0E098
:10149000808182958F70882F90E081709070009786
:1014A000A9F3A6E2B0E0E6E2F0E0808180618C93EF
:1014B000E5E2F0E08081EB81FC81808389810F90FF
:1014C0000F900F900F90CF91DF910895DF93CF93FE
:1014D00000D000D000D0CDB7DEB78A836B834C83B9
:1014E00019828A81843008F0D4C08B81883008F05A
:1014F000D0C08C81882321F08C81813009F0C9C053
:101500008A81282F30E03E832D836D817E8161307A
:10151000710509F441C08D819E818230910534F4BA
:101520002D813E812115310571F0B0C06D817E8124
:101530006230710509F459C08D819E818330910517
:1015400009F47CC0A3C0AAE3B0E0EAE3F0E0808144
:10155000482F8B81282F30E081E090E002C0880F77
:10156000991F2A95E2F7809584238C93AAE3B0E033
:10157000EAE3F0E08081482F8C81282F30E08B81D6
:10158000882F90E0B90102C0660F771F8A95E2F7B5
:10159000CB01842B8C937AC0A7E3B0E0E7E3F0E0C3
:1015A0008081482F8B81282F30E081E090E002C0BD
:1015B000880F991F2A95E2F7809584238C93A7E3DF
:1015C000B0E0E7E3F0E08081482F8C81282F30E005
:1015D0008B81882F90E0B90102C0660F771F8A9532
:1015E000E2F7CB01842B8C9351C0A4E3B0E0E4E399
:1015F000F0E08081482F8B81282F30E081E090E05F
:1016000002C0880F991F2A95E2F7809584238C9356
:10161000A4E3B0E0E4E3F0E08081482F8C81282F40
:1016200030E08B81882F90E0B90102C0660F771FF0
:101630008A95E2F7CB01842B8C9328C0A1E3B0E01C
:10164000E1E3F0E08081482F8B81282F30E081E0BA
:1016500090E002C0880F991F2A95E2F780958423B5
:101660008C93A1E3B0E0E1E3F0E08081482F8C812E
:10167000282F30E08B81882F90E0B90102C0660FDF
:10168000771F8A95E2F7CB01842B8C9381E08983C5
:1016900002C082E08983898126960FB6F894DEBF66
:1016A0000FBECDBFCF91DF910895DF93CF9300D0D0
:1016B00000D000D0CDB7DEB78A836B834C8319820C
:1016C0008A81843008F0D4C08B81883008F0D0C083
:1016D0008C81882321F08C81813009F0C9C08A81F6
:1016E000282F30E03E832D836D817E81613071052E
:1016F00009F441C08D819E818230910534F42D81A1
:101700003E812115310571F0B0C06D817E8162305E
:10171000710509F459C08D819E818330910509F4CA
:101720007CC0A3C0ABE3B0E0EBE3F0E08081482FE6
:101730008B81282F30E081E090E002C0880F991F54
:101740002A95E2F7809584238C93ABE3B0E0EBE33A
:10175000F0E08081482F8C81282F30E08B81882F0A
:1017600090E0B90102C0660F771F8A95E2F7CB01BE
:10177000842B8C937AC0A8E3B0E0E8E3F0E08081AA
:10178000482F8B81282F30E081E090E002C0880F45
:10179000991F2A95E2F7809584238C93A8E3B0E003
:1017A000E8E3F0E08081482F8C81282F30E08B81A6
:1017B000882F90E0B90102C0660F771F8A95E2F783
:1017C000CB01842B8C9351C0A5E3B0E0E5E3F0E0BE
:1017D0008081482F8B81282F30E081E090E002C08B
:1017E000880F991F2A95E2F7809584238C93A5E3AF
:1017F000B0E0E5E3F0E08081482F8C81282F30E0D5
:101800008B81882F90E0B90102C0660F771F8A95FF
:10181000E2F7CB01842B8C9328C0A2E3B0E0E2E393
:10182000F0E08081482F8B81282F30E081E090E02C
:1018300002C0880F991F2A95E2F7809584238C9324
:10184000A2E3B0E0E2E3F0E08081482F8C81282F12
:1018500030E08B81882F90E0B90102C0660F771FBE
:101860008A95E2F7CB01842B8C9381E0898302C0B7
:1018700082E08983898126960FB6F894DEBF0FBE79
:10188000CDBFCF91DF910895DF93CF9300D000D0EB
:101890000F92CDB7DEB78A836B8319828A81843039
:1018A000A8F58A81282F30E03D832C838C819D818F
:1018B00081309105D1F02C813D81223031052CF40D
:1018C0008C819D81009761F01EC02C813D8122306A
:1018D000310581F08C819D818330910581F013C0A9
:1018E000EAE3F0E08B8180830EC0E7E3F0E08B81D8
:1018F000808309C0E4E3F0E08B81808304C0E1E3EE
:10190000F0E08B81808381E0898302C082E089835B
:1019100089810F900F900F900F900F90CF91DF91D2
:101920000895DF93CF9300D000D00F92CDB7DEB7EC
:101930008A836B8319828A818430A8F58A81282F53
:1019400030E03D832C838C819D8181309105D1F0E5
:101950002C813D81223031052CF48C819D810097B2
:1019600061F01EC02C813D812230310581F08C81D7
:101970009D818330910581F013C0EBE3F0E08B8112
:1019800080830EC0E8E3F0E08B81808309C0E5E34B
:10199000F0E08B81808304C0E2E3F0E08B81808300
:1019A00081E0898302C082E0898389810F900F9052
:1019B0000F900F900F90CF91DF910895DF93CF9309
:1019C00000D000D00F92CDB7DEB78A836B83198227
:1019D0008A81843008F075C08B81883008F071C02E
:1019E0008A81282F30E03D832C838C819D8181303A
:1019F000910549F12C813D81223031052CF48C81F7
:101A00009D81009761F05AC02C813D8122303105C3
:101A100071F18C819D8183309105E9F14FC0ABE379
:101A2000B0E0EBE3F0E08081482F8B81282F30E09D
:101A300081E090E0022E02C0880F991F0A94E2F71D
:101A400084278C933BC0A8E3B0E0E8E3F0E080811A
:101A5000482F8B81282F30E081E090E0022E02C0D9
:101A6000880F991F0A94E2F784278C9327C0A5E377
:101A7000B0E0E5E3F0E08081482F8B81282F30E053
:101A800081E090E0022E02C0880F991F0A94E2F7CD
:101A900084278C9313C0A2E3B0E0E2E3F0E08081FE
:101AA000482F8B81282F30E081E090E0022E02C089
:101AB000880F991F0A94E2F784278C9381E0898329
:101AC00002C082E0898389810F900F900F900F9060
:101AD0000F90CF91DF910895DF93CF9300D000D086
:101AE0000F92CDB7DEB78A836B838A81843008F08A
:101AF0006CC08B81883008F068C08A81282F30E064
:101B00003D832C834C815D814130510541F18C81B5
:101B10009D818230910534F42C813D812115310560
:101B200061F055C04C815D814230510551F18C818D
:101B30009D8183309105B9F14AC0E9E3F0E08081ED
:101B4000282F30E08B81882F90E0A90102C05595A5
:101B500047958A95E2F7CA018170898338C0E6E328
:101B6000F0E08081282F30E08B81882F90E0A90160
:101B700002C0559547958A95E2F7CA01817089831D
:101B800026C0E3E3F0E08081282F30E08B81882FAE
:101B900090E0A90102C0559547958A95E2F7CA01E0
:101BA0008170898314C0E0E3F0E08081282F30E069
:101BB0008B81882F90E0A90102C0559547958A95A1
:101BC000E2F7CA018170898302C082E0898389813A
:101BD0000F900F900F900F900F90CF91DF9108957D
:101BE000DF93CF9300D000D0CDB7DEB78A838A8150
:101BF000843098F58A81282F30E03C832B838B81B9
:101C00009C8181309105D1F02B813C8122303105BE
:101C10002CF48B819C81009761F021C02B813C8149
:101C20002230310581F08B819C818330910581F0D8
:101C300016C0E9E3F0E08081898311C0E6E3F0E0BB
:101C4000808189830CC0E3E3F0E08081898307C051
:101C5000E0E3F0E08081898302C082E089838981AA
:101C60000F900F900F900F90CF91DF910895DF9319
:101C7000CF93CDB7DEB762970FB6F894DEBF0FBE35
:101C8000CDBF998B888B6A8B1F8688899989892F0C
:101C9000992780658F870E9471158F850E94CA15CC
:101CA00088890E943C168A890E943C160E949616DA
:101CB00080E090E0A0EAB0E48B879C87AD87BE8788
:101CC0006B857C858D859E8520E030E04AE755E474
:101CD0000E949B03DC01CB018F839887A987BA8779
:101CE0006F81788589859A8520E030E040E85FE360
:101CF0000E94A10588232CF481E090E09E838D83CF
:101D00003FC06F81788589859A8520E03FEF4FE756
:101D100057E40E94410518164CF56B857C858D852E
:101D20009E8520E030E040E251E40E949B03DC010C
:101D3000CB01BC01CD010E944100DC01CB019E839F
:101D40008D830FC080E991E09C838B838B819C8184
:101D50000197F1F79C838B838D819E8101979E83F0
:101D60008D838D819E81009769F714C06F8178857E
:101D700089859A850E944100DC01CB019E838D8379
:101D80008D819E819A83898389819A810197F1F758
:101D90009A83898362960FB6F894DEBF0FBECDBFDB
:101DA000CF91DF910895DF93CF9300D000D0CDB7CE
:101DB000DEB79C838B8319821A828B819C81892F49
:101DC0009927806589830E94711589810E94CA15AF
:101DD0008B810E943C160E949F1589810E940316E8
:101DE000CE0102960E9466160E9496168A810F9076
:101DF0000F900F900F90CF91DF910895DF93CF93C5
:101E00000F92CDB7DEB7198281E060E040E00E941A
:101E1000660A81E061E040E00E94660A81E062E0DB
:101E200040E00E94660A81E063E040E00E94660AAA
:101E300081E064E041E00E94660A81E065E041E003
:101E40000E94660A81E066E041E00E94660A81E045
:101E500067E041E00E94660A81E064E041E00E94A0
:101E6000550B81E065E041E00E94550B81E066E0A2
:101E700041E00E94550B81E067E041E00E94550B74
:101E800081E060E041E00E94550B81E061E041E0CB
:101E90000E94550B81E062E041E00E94550B81E019
:101EA00063E041E00E94550B89810F90CF91DF9153
:101EB0000895DF93CF93CDB7DEB7E2970FB6F894CE
:101EC000DEBF0FBECDBF9CA78BA71A8AEBA5FCA5D2
:101ED0008FEF80831B8A81E08C8B82E08D8B83E087
:101EE0008E8B84E08F8B85E0888F86E0898F87E0FA
:101EF0008A8FCE014B969FA78EA7E8E6F1E0F9AB5B
:101F0000E8ABF0E1FAABE8A9F9A9008088A999A9A2
:101F1000019699AB88ABEEA5FFA500828EA59FA583
:101F200001969FA78EA79AA991509AABEAA9EE2392
:101F300051F7188AE8C08889282F30E0CE014796EB
:101F4000FC01E20FF31F908181E0692F40E00E94C5
:101F5000550B198AC3C08989282F30E0CE014396DA
:101F6000FC01E20FF31F908181E0692F0E946C0D4C
:101F70008F878F85882309F0AEC080E090E0A0E2D3
:101F8000B1E48B879C87AD87BE876B857C858D850B
:101F90009E8520E030E04AE755E40E949B03DC0187
:101FA000CB018F839887A987BA876F8178858985C8
:101FB0009A8520E030E040E85FE30E94A105882395
:101FC0002CF481E090E09E838D833FC06F81788503
:101FD00089859A8520E03FEF4FE757E40E9441054D
:101FE00018164CF56B857C858D859E8520E030E04C
:101FF00040E251E40E949B03DC01CB01BC01CD0116
:102000000E944100DC01CB019E838D830FC080E9DB
:1020100091E09C838B838B819C810197F1F79C835A
:102020008B838D819E8101979E838D838D819E817F
:10203000009769F714C06F81788589859A850E9419
:102040004100DC01CB019E838D838D819E819A832B
:10205000898389819A810197F1F79A838983898994
:10206000282F30E0CE014396FC01E20FF31F908150
:1020700081E0692F0E946C0D8F878F85882359F529
:102080008989282F30E08889482F50E0220F331F9C
:10209000220F331FCE010196820F931F840F951FCD
:1020A000FC017A968081EBA5FCA580830EC089890E
:1020B000282F30E0CE014396FC01E20FF31F908100
:1020C00081E0692F0E946C0D8F878F85882379F3BB
:1020D000F1E0FDA71EC089898F5F898B89898430D3
:1020E00008F439CF8889282F30E0CE014796FC01CB
:1020F000E20FF31F908181E0692F41E00E94550BB0
:1021000088898F5F888B8889843008F414CF8A8906
:102110008DA78DA5E2960FB6F894DEBF0FBECDBF9A
:10212000CF91DF910895DF93CF9300D000D000D0FE
:10213000CDB7DEB78E8384E08A8385E08B8386E02B
:102140008C8387E08D83198220C08981282F30E01D
:10215000CE010296FC01E20FF31F40818E81282FF1
:1021600030E08981882F90E0B90102C075956795AC
:102170008A95E2F7CB01982F917080E0642F492F68
:102180000E94550B89818F5F898389818430E8F2B1
:1021900026960FB6F894DEBF0FBECDBFCF91DF916C
:1021A0000895DF93CF93CDB7DEB72E970FB6F8948F
:1021B000DEBF0FBECDBF80E063E041E00E94550B63
:1021C00080E090E0A0E0B0E48B879C87AD87BE877D
:1021D0006B857C858D859E8520E030E04AE755E45F
:1021E0000E949B03DC01CB018F839887A987BA8764
:1021F0006F81788589859A8520E030E040E85FE34B
:102200000E94A10588232CF481E090E09E838D83B9
:102210003FC06F81788589859A8520E03FEF4FE741
:1022200057E40E94410518164CF56B857C858D8519
:102230009E8520E030E040E251E40E949B03DC01F7
:10224000CB01BC01CD010E944100DC01CB019E838A
:102250008D830FC080E991E09C838B838B819C816F
:102260000197F1F79C838B838D819E8101979E83DB
:102270008D838D819E81009769F714C06F81788569
:1022800089859A850E944100DC01CB019E838D8364
:102290008D819E819A83898389819A810197F1F743
:1022A0009A83898380E063E040E00E94550B2E967C
:1022B0000FB6F894DEBF0FBECDBFCF91DF9108956A
:1022C000DF93CF930F92CDB7DEB781E0898380E0B3
:1022D00061E041E00E94660A80E062E041E00E9425
:1022E000660A80E063E041E00E94660A80E064E004
:1022F00041E00E94660A80E065E041E00E94660AD3
:1023000080E066E041E00E94660A80E067E041E02C
:102310000E94660A89810F90CF91DF910895DF9323
:10232000CF93CDB7DEB72F970FB6F894DEBF0FBEB1
:10233000CDBF81E08F870E94601180E090E0A0E235
:10234000B2E48B879C87AD87BE876B857C858D8546
:102350009E8520E030E04AE755E40E949B03DC01C3
:10236000CB018F839887A987BA876F817885898504
:102370009A8520E030E040E85FE30E94A1058823D1
:102380002CF481E090E09E838D833FC06F8178853F
:1023900089859A8520E03FEF4FE757E40E94410589
:1023A00018164CF56B857C858D859E8520E030E088
:1023B00040E251E40E949B03DC01CB01BC01CD0152
:1023C0000E944100DC01CB019E838D830FC080E918
:1023D00091E09C838B838B819C810197F1F79C8397
:1023E0008B838D819E8101979E838D838D819E81BC
:1023F000009769F714C06F81788589859A850E9456
:102400004100DC01CB019E838D838D819E819A8367
:10241000898389819A810197F1F79A83898382E080
:102420000E9493100E94D11082E00E9493100E949B
:10243000D1108CE00E9493100E94D1108FE00E9476
:102440002D120E9451128F852F960FB6F894DEBF81
:102450000FBECDBFCF91DF910895DF93CF9300D012
:10246000CDB7DEB78A8381E0898380E061E040E018
:102470000E94550B80E062E040E00E94550B8A818B
:1024800082958F700E9493100E94D1108A810E94C1
:1024900093100E94D11089810F900F90CF91DF91FE
:1024A0000895DF93CF93CDB7DEB72F970FB6F8948B
:1024B000DEBF0FBECDBF81E08F8781E00E942D126D
:1024C00080E090E0A0E0B0E48B879C87AD87BE877A
:1024D0006B857C858D859E8520E030E04AE755E45C
:1024E0000E949B03DC01CB018F839887A987BA8761
:1024F0006F81788589859A8520E030E040E85FE348
:102500000E94A10588232CF481E090E09E838D83B6
:102510003FC06F81788589859A8520E03FEF4FE73E
:1025200057E40E94410518164CF56B857C858D8516
:102530009E8520E030E040E251E40E949B03DC01F4
:10254000CB01BC01CD010E944100DC01CB019E8387
:102550008D830FC080E991E09C838B838B819C816C
:102560000197F1F79C838B838D819E8101979E83D8
:102570008D838D819E81009769F714C06F81788566
:1025800089859A850E944100DC01CB019E838D8361
:102590008D819E819A83898389819A810197F1F740
:1025A0009A8389838F852F960FB6F894DEBF0FBE6E
:1025B000CDBFCF91DF910895DF93CF9300D0CDB7FA
:1025C000DEB78A8381E0898380E061E041E00E9498
:1025D000550B80E062E040E00E94550B8A818295B5
:1025E0008F700E9493100E94D1108A810E949310D4
:1025F0000E94D11089810F900F90CF91DF910895A3
:10260000DF93CF9300D000D0CDB7DEB79C838B8310
:102610001A8219828B819C810097E9F00EC0898112
:10262000282F30E08B819C81FC01E20FF31F808119
:102630000E94DC1289818F5F89838981282F30E095
:102640008B819C81FC01E20FF31F8081882339F785
:1026500081E08A8302C083E08A838A810F900F9091
:102660000F900F90CF91DF910895EF92FF920F930B
:102670001F93DF93CF93CDB7DEB72A970FB6F894A9
:10268000DEBF0FBECDBF6F83788789879A8781E0D1
:102690008E831A821B821C821D8219828F819885EB
:1026A000A985BA85BB230CF049C08DE20E94DC12DB
:1026B0008F819885A985BA85B095A09590958195CB
:1026C0009F4FAF4FBF4F8F839887A987BA8736C078
:1026D0008A819B81AC81BD812AE030E040E050E0FE
:1026E000BC01CD010E94D6177B018C018F8198859A
:1026F000A985BA852AE030E040E050E0BC01CD0178
:102700000E941718DC01CB018E0D9F1DA01FB11F69
:102710008A839B83AC83BD838F819885A985BA8585
:102720002AE030E040E050E0BC01CD010E941718E3
:10273000DA01C9018F839887A987BA878F81988525
:10274000A985BA850097A105B10511F68A819B81FB
:10275000AC81BD812AE030E040E050E0BC01CD0119
:102760000E94F517DC01CB0189838981805D0E947D
:10277000DC128A819B81AC81BD812AE030E040E09F
:1027800050E0BC01CD010E94F517DA01C9018A832E
:102790009B83AC83BD838A819B81AC81BD81009783
:1027A000A105B10599F68E812A960FB6F894DEBF81
:1027B0000FBECDBFCF91DF911F910F91FF90EF9092
:1027C0000895AF92BF92CF92DF92EF92FF920F9354
:1027D0001F93DF93CF93CDB7DEB72E970FB6F89444
:1027E000DEBF0FBECDBF6B877C878D879E8781E064
:1027F0008A871A821B821C821D821E821F82188673
:10280000198619826B857C858D859E8520E030E058
:1028100040E050E00E94A105882364F48DE20E940C
:10282000DC128B859C85AD85BE85B0588B879C87D7
:10283000AD87BE876B857C858D859E850E946D00EA
:10284000A22EB32EC42ED52EE62EF72E082F192F2A
:10285000AA82BB82CC82DD82EE82FF820887198742
:102860002A813B814C815D816E817F81888599853C
:102870000E9415019B01AC016B857C858D859E8531
:102880000E943D03DC01CB01BC01CD0120E030E022
:1028900048EC52E40E949B03DC01CB01BC01CD015A
:1028A0000E944100DC01CB0189838A819B81AC813C
:1028B000BD81BC01CD010E9435138EE20E94DC1265
:1028C0008981882F90E0A0E0B0E0BC01CD010E949A
:1028D00035138A852E960FB6F894DEBF0FBECDBF96
:1028E000CF91DF911F910F91FF90EF90DF90CF90EC
:1028F000BF90AF900895DF93CF930F92CDB7DEB71F
:1029000081E0898382E00E942D1289810F90CF910E
:10291000DF910895DF93CF9300D000D0CDB7DEB71D
:102920008B836C831A828C81882319F08C8181308F
:10293000C9F48C81882F90E00024969587950794A0
:10294000969587950794982F802D982F8B81890FC6
:10295000898389818068898389810E942D1281E021
:102960008A8302C082E08A838A810F900F900F9041
:102970000F90CF91DF910895DF93CF93CDB7DEB75E
:1029800028970FB6F894DEBF0FBECDBF9D838C8312
:102990006E834F8328871B828E81882F90E0880F5B
:1029A000991F880F991F880F991F8A838A818064D5
:1029B0008A838A810E942D1219820EC08981282F54
:1029C00030E08C819D81FC01E20FF31F80810E9429
:1029D000DC1289818F5F89838981883078F38F81C8
:1029E00068850E948A148E810E94DC128B81289651
:1029F0000FB6F894DEBF0FBECDBFCF91DF91089523
:102A0000DF93CF9300D00F92CDB7DEB78B8381E0F9
:102A10008A83198206C080E10E942D1289818F5F0E
:102A2000898399818B819817B0F380E20E94DC1230
:102A300080E10E942D128A810F900F900F90CF910C
:102A4000DF910895DF93CF930F92CDB7DEB78983DF
:102A5000E0E2F0E08CE08083A1E2B0E0E1E2F0E0CF
:102A600080818E7F8C93A1E2B0E0E1E2F0E0808192
:102A70008D7F8C938981882329F0E2E2F0E08981BF
:102A8000880F8083A6E5B0E0E6E5F0E08081806411
:102A90008C93A6E5B0E0E6E5F0E0808184608C935D
:102AA0000F90CF91DF910895DF93CF930F92CDB721
:102AB000DEB78983E2E2F0E08981880F8083A6E5B2
:102AC000B0E0E6E5F0E0808180648C93A6E5B0E0BC
:102AD000E6E5F0E0808184608C930F90CF91DF91E8
:102AE0000895DF93CF930F92CDB7DEB781E089834E
:102AF000A6E5B0E0E6E5F0E0808180628C93A6E593
:102B0000B0E0E6E5F0E0808180688C93E6E5F0E0F7
:102B100080818823DCF78AE20E94DC12E1E2F0E0A7
:102B20008081882F90E0887F90708830910511F027
:102B300084E0898389810F90CF91DF910895DF939D
:102B4000CF930F92CDB7DEB781E08983A6E5B0E0E1
:102B5000E6E5F0E0808180628C93A6E5B0E0E6E5F2
:102B6000F0E0808180688C93E6E5F0E08081882346
:102B7000DCF7E1E2F0E08081882F90E0887F9070C0
:102B80008031910511F085E0898389810F90CF9183
:102B9000DF910895DF93CF9300D0CDB7DEB78A835E
:102BA00081E08983E3E2F0E08A81880F8083A3E2F9
:102BB000B0E0E3E2F0E080818E7F8C93A6E5B0E0A8
:102BC000E6E5F0E080818F7D8C93A6E5B0E0E6E558
:102BD000F0E0808180688C93E6E5F0E080818823D6
:102BE000DCF7E1E2F0E08081882F90E0887F907050
:102BF0008831910511F086E0898389810F900F90CB
:102C0000CF91DF910895DF93CF9300D0CDB7DEB79A
:102C10008A8381E08983E3E2F0E08A81880F808300
:102C2000A3E2B0E0E3E2F0E0808181608C93A6E56E
:102C3000B0E0E6E5F0E080818F7D8C93A6E5B0E022
:102C4000E6E5F0E0808180688C93E6E5F0E0808145
:102C50008823DCF7E1E2F0E08081882F90E0887F34
:102C600090708034910511F087E0898389810F90FD
:102C70000F90CF91DF910895DF93CF9300D0CDB720
:102C8000DEB78A8381E08983E3E2F0E08A81808392
:102C9000A6E5B0E0E6E5F0E0808180688C93E6E5AB
:102CA000F0E080818823DCF7E1E2F0E08081882F8A
:102CB00090E0887F90708832910511F088E08983D8
:102CC00089810F900F90CF91DF910895DF93CF937B
:102CD00000D00F92CDB7DEB79B838A8381E08983D2
:102CE000A6E5B0E0E6E5F0E0808180688C93E6E55B
:102CF000F0E080818823DCF7E1E2F0E08081882F3A
:102D000090E0887F90708035910519F089E0898383
:102D100006C0E3E2F0E08081EA81FB818083898163
:102D20000F900F900F90CF91DF910895DF93CF9385
:102D3000CDB7DEB7A6E5B0E0E6E5F0E080818061E2
:102D40008C93A6E5B0E0E6E5F0E0808180688C93A6
:102D5000CF91DF9108950F931F93DF93CF9300D00E
:102D600000D00F92CDB7DEB76A837B838C839D83BF
:102D700081E0898383E065E041E00E94660AAFE478
:102D8000B0E0EFE4F0E0808180688C93AFE4B0E0E5
:102D9000EFE4F0E080818F7B8C93AEE4B0E0EEE472
:102DA000F0E0808181608C93AEE4B0E0EEE4F0E08E
:102DB000808182608C93AEE4B0E0EEE4F0E080814C
:102DC0008B7F8C93AFE4B0E0EFE4F0E080818E7F06
:102DD0008C93AFE4B0E0EFE4F0E0808182608C930C
:102DE000AEE4B0E0EEE4F0E0808188608C93AEE485
:102DF000B0E0EEE4F0E0808180618C93E6E4F0E006
:102E000087E893E1918380830AE410E06A817B8103
:102E10008C819D8120E030E04AE753E40E949B03CF
:102E2000DC01CB01BC01CD010E944100DC01CB01E2
:102E3000F8019183808389810F900F900F900F90FC
:102E40000F90CF91DF911F910F910895DF93CF9352
:102E500000D0CDB7DEB781E08A831982898180688E
:102E60008983898182608983898184608983E0E4A0
:102E7000F0E089818083E9E2F0E087E68083AAE2DE
:102E8000B0E0EAE2F0E0808180618C93AAE2B0E0F9
:102E9000EAE2F0E0808188608C938A810F900F9045
:102EA000CF91DF910895DF93CF9300D00F92CDB7EC
:102EB000DEB79B838A8381E08983ABE2B0E0EBE2FB
:102EC000F0E08081881F8827881F8C938C9188234D
:102ED000A1F3ECE2F0E08081EA81FB8180838981CB
:102EE0000F900F900F90CF91DF910895DF93CF93C4
:102EF00000D0CDB7DEB78A8381E08983ABE2B0E052
:102F0000EBE2F0E0808182958695877081708C93EA
:102F10008C91882399F3ECE2F0E08A8180838981A7
:102F20000F900F90CF91DF910895DF93CF930F9281
:102F3000CDB7DEB719820E948F1180E00E94221562
:102F40008BE290E061E00E94370E8CE290E062E05C
:102F50000E94370E8DE290E066E00E94370E8EE20E
:102F600090E064E00E94370E8DE290E00E94D30E64
:102F700089838981882F90E0A0E0B0E0BC01CD0179
:102F80000E9435138EE290E00E94D30E89838981DE
:102F9000882F90E0A0E0B0E0BC01CD010E94351385
:102FA00080E090E00F90CF91DF910895629FD00173
:102FB000739FF001829FE00DF11D649FE00DF11DF4
:102FC000929FF00D839FF00D749FF00D659FF00DA3
:102FD0009927729FB00DE11DF91F639FB00DE11D90
:102FE000F91FBD01CF0111240895A1E21A2EAA1BD9
:102FF000BB1BFD010DC0AA1FBB1FEE1FFF1FA217A9
:10300000B307E407F50720F0A21BB30BE40BF50BA5
:10301000661F771F881F991F1A9469F7609570952E
:10302000809590959B01AC01BD01CF01089597FB60
:10303000092E05260ED057FD04D0D7DF0AD0001C7C
:1030400038F450954095309521953F4F4F4F5F4F45
:103050000895F6F790958095709561957F4F8F4F05
:103060009F4F08952F923F924F925F926F927F925F
:103070008F929F92AF92BF92CF92DF92EF92FF9288
:103080000F931F93CF93DF93CDB7DEB7CA1BDB0B34
:103090000FB6F894DEBF0FBECDBF09942A883988D9
:1030A00048885F846E847D848C849B84AA84B984E0
:1030B000C884DF80EE80FD800C811B81AA81B981EC
:1030C000CE0FD11D0FB6F894DEBF0FBECDBFED0100
:0630D0000895F894FFCF03
:1030D60000000000000000000001020203030303D9
:1030E6000404040404040404050505050505050592
:1030F6000505050505050505060606060606060672
:103106000606060606060606060606060606060659
:103116000606060606060606070707070707070741
:103126000707070707070707070707070707070729
:103136000707070707070707070707070707070719
:103146000707070707070707070707070707070709
:1031560007070707070707070808080808080808F1
:1031660008080808080808080808080808080808D9
:1031760008080808080808080808080808080808C9
:1031860008080808080808080808080808080808B9
:1031960008080808080808080808080808080808A9
:1031A6000808080808080808080808080808080899
:1031B6000808080808080808080808080808080889
:1031C6000808080808080808080808080808080879
:1031D60008080808080808080708092F04050658FB
:0831E6000102032D43003D2B03
:00000001FF
